:020000040800F2
:10000000C86E01207902000889300008832B00089F
:10001000853000081D090008DF38000800000000D6
:10002000000000000000000000000000893200080D
:10003000BD0A0008000000008D3000088B32000867
:10004000930200089302000893020008930200083C
:10005000930200089302000893020008930200082C
:10006000930200089302000893020008930200081C
:10007000930200089302000893020008930200080C
:100080009302000893020008930200080000000099
:1000900000000000000000000000000093020008C3
:1000A00093020008930200089302000893020008DC
:1000B00093020008593300089302000893020008D5
:1000C00093020008930200089302000893020008BC
:1000D0009302000893020008930200080000000049
:1000E0009302000893020008930200080000000039
:1000F0000000000000000000000000009302000863
:100100000000000093020008930200089302000818
:1001100000000000000000000000000000000000DF
:100120002109000893020008310900089302000821
:100130009302000800000000000000000000000022
:100140000000000000000000000000009302000812
:10015000930200089302000893020008930200082B
:100160009302000893020008000000000000000055
:10017000000000000000000000000000000000007F
:1001800000000000930200080000000000000000D2
:10019000930200089302000800F002F800F05CF8F7
:1001A0000AA090E8000C82448344AAF10107DA45D2
:1001B00001D100F051F8AFF2090EBAE80F0013F0C8
:1001C000010F18BFFB1A43F001031847803D0700D9
:1001D000A03D07000A444FF0000C10F8013B13F05B
:1001E000070408BF10F8014B1D1108BF10F8015B90
:1001F000641E05D010F8016B641E01F8016BF9D183
:1002000013F0080F1EBF10F8014BAD1C0C1B09D1D9
:100210006D1E58BF01F801CBFAD505E014F8016B4B
:1002200001F8016B6D1EF9D59142D6D370470000DD
:100230000023002400250026103A28BF78C1FBD8EF
:10024000520728BF30C148BF0B6070471FB521F06F
:1002500096F81FBD10B510BD00F023FA1146FFF748
:10026000F5FF1CF0A5FF00F041FA03B4FFF7F2FF21
:1002700003BC00F049FA00000948804709480047DC
:10028000FEE7FEE7FEE7FEE7FEE7FEE7FEE7FEE746
:10029000FEE7FEE704480549054A064B70470000A3
:1002A0004533000899010008C8680120C86E012084
:1002B000C86A0120C86A012053EA020C00F0698074
:1002C0002DE9F04B4FF00006002B1FBFB3FA83F56A
:1002D00003FA05F424FA05F65E4012BF1643B2FA9B
:1002E00082F502FA05F4C5F120051EBF22FA05FCCD
:1002F00044EA0C04203556EA044C4FEA144418BF73
:10030000641C4FF000084FF00009904271EB030CA1
:1003100039D3002919BFB1FA81F701FA07F6B0FA0B
:1003200080F700FA07F6C7F120071EBF20FA07FC86
:1003300046EA0C062037B6FBF4FCA7EB0507103F96
:1003400007F01F0BCBF120060CFA0BFB2CFA06F67C
:1003500044BFB3460026202FA4BF5E464FF0000BDB
:100360005BEA060C08BF4FF0010B19EB0B09ABFB66
:10037000027C48EB0608C01B06FB02CC0BFB03CC3F
:1003800071EB0C01C1E70B46024641464846BDE809
:10039000F08B13B54FF000004FF00001AFF3008079
:1003A000BDE81C40704740EA010310B59B070FD120
:1003B000042A0DD310C808C9121F9C42F8D020BAD5
:1003C00019BA884201D9012010BD4FF0FF3010BD8D
:1003D0001AB1D30703D0521C07E0002010BD10F85B
:1003E000013B11F8014B1B1B07D110F8013B11F821
:1003F000014B1B1B01D1921EF1D1184610BD40EAE2
:100400000103024630B59B0710D14FF0013400E0E4
:1004100008C208C91D1B9D4315EAC41FF8D013F07C
:10042000FF0102F8011B0DD01B0AF8E711F8013B90
:10043000002B02F8013B05D011F8013B002B02F81C
:10044000013BF3D130BD10B5431C02E010F8011B95
:1004500071B18107FAD14FF0013202C88C1A8C4376
:1004600014EAC211F9D0C01A0A0603D0C01E10BD8A
:10047000C01A10BD0A0401D0801E10BD0902FCD0B4
:10048000401E10BD032A40F2308010F0030C00F033
:10049000158011F8013BBCF1020F624498BF11F8BE
:1004A00001CB00F8013B38BF11F8013BA2F1040277
:1004B00098BF00F801CB38BF00F8013B11F00303EF
:1004C00000F02980083AC0F0088051F8043B083A4F
:1004D00051F804CBA0E80810F5E7121D5CBF51F8F5
:1004E000043B40F8043BAFF30080D20724BF11F86F
:1004F000013B11F801CB48BF11F8012B24BF00F8D4
:10050000013B00F801CB48BF00F8012B704701B553
:10051000FFF7B8FF01BD10B5203AC0F00B80B1E87D
:100520001850203AA0E81850B1E81850A0E8185028
:10053000BFF4F5AF5FEA027C24BFB1E81850A0E831
:10054000185044BF18C918C0BDE810405FEA827C4B
:1005500024BF51F8043B40F8043B08BF7047D20762
:1005600028BF31F8023B48BF11F8012B28BF20F803
:10057000023B48BF00F8012B704702F0FF0343EA3B
:10058000032242EA024200F002B84FF000020429BE
:10059000C0F0128010F0030C00F01B80CCF1040CB2
:1005A000BCF1020F18BF00F8012BA8BF20F8022BE6
:1005B000A1EB0C0100F00DB85FEAC17C24BF00F88C
:1005C000012B00F8012B48BF00F8012B70474FF0BA
:1005D000000200B5134694469646203922BFA0E893
:1005E0000C50A0E80C50B1F12001BFF4F7AF09079F
:1005F00028BFA0E80C5048BF0CC05DF804EB890090
:1006000028BF40F8042B08BF704748BF20F8022BD2
:1006100011F0804F18BF00F8012B70474FF0013CDC
:1006200050F8042B51F8043B9A4221D1A2EB0C0361
:10063000934313EACC1317D150F8042B51F8043B21
:100640009A4215D1A2EB0C03934313EACC130BD1BE
:1006500050F8042B51F8043B9A4209D1A2EB0C0349
:10066000934313EACC13DBD04FF00000704700BF78
:10067000D01A01BAB1FA81F101F0180122FA01F0A1
:10068000CB40C1F12001DBB2C0B2C01A2CFA01F399
:10069000D11A914311EAC311E6D1704770477047F0
:1006A0007047754600F02CF8AE4605006946534683
:1006B00020F00700854618B020B5FFF7EBFDBDE838
:1006C00020404FF000064FF000074FF000084FF0B9
:1006D000000B21F00701AC46ACE8C009ACE8C0094A
:1006E000ACE8C009ACE8C0098D46704710B50446B7
:1006F000AFF300802046BDE81040FFF7B6BD000014
:10070000004870476868012001491820ABBEFEE729
:1007100026000200704770B50546AC6B206C00F0F7
:10072000500050BB206C40F400702064206880684A
:1007300000F04050E8B9207ED8B92068C06A00F4C3
:10074000700020B12068806800F4806088B920685B
:10075000406820F0200021684860206C20F4807000
:100760002064206C00F4805018B9206C40F0010027
:100770002064204600F078FA0BE0206C00F01000B6
:1007800018B1204600F072FA03E0A06BC16C284655
:10079000884770BD70B50546AC6B40202064606C26
:1007A00040F004006064204600F060FA70BD70B54F
:1007B0000446A56B284600F058FA70BD55494A68B2
:1007C00022F440324A604A6843681A434A60026829
:1007D000526822F4807203685A60026853680269A2
:1007E00043EA022203685A600268526822F04072AB
:1007F00003685A600268526883681A4303685A6043
:100800000268926822F4006203689A600268926843
:10081000C3681A4303689A603F4B826A9A4218D0B1
:100820000268926822F0706203689A6002689268B7
:10083000836A1A4303689A600268926822F0405201
:1008400003689A6002689268C36A1A4303689A60F0
:100850000BE00268926822F0706203689A60026896
:10086000926822F0405203689A600268926822F00F
:10087000020203689A6002689368027E43EA4202B9
:1008800003689A602022125CA2B10268526842F4A6
:10089000006203685A600268526822F4604203688A
:1008A0005A6002685368426A521E43EA4232036841
:1008B0005A6005E00268526822F4006203685A60D8
:1008C0000268D26A22F470020368DA620268D36AAC
:1008D000828B521E43EA02520368DA62026892680F
:1008E00022F4007203689A600268936890F83020DE
:1008F00043EA422203689A600268926822F48062A6
:1009000003689A6002689368426943EA8222036836
:100910009A607047002301400100000F00BFFEE70E
:1009200010B5024800F0F6FA10BD0000B002002039
:1009300010B5024800F0EEFA10BD00006803002078
:100940000146087810381823B0FBF3F20848805CA1
:10095000C865032A05D908686FF30900001D88657A
:1009600003E008686FF309008865886D7047000030
:1009700092130208014600208A6A8B69CBB932B112
:10098000012A0DD0022A03D0032A10D10EE000BFA5
:10099000CB6A03F08073B3F1807F00D1012007E0C0
:1009A000CB6AB3F1C07F00D1012001E000E000BFBD
:1009B00034E08B69B3F5005F1AD132B1012A07D058
:1009C000022A03D0032A11D10AE000BF01200EE061
:1009D000CB6A03F08073B3F1807F00D1012006E081
:1009E000CB6AB3F1C07F00D1012000E000BF15E069
:1009F00032B1012A05D0022A04D0032A0CD103E027
:100A000000BF00BF012008E0CB6A03F08073B3F1A0
:100A1000807F00D1012000E000BF00BF70470000D0
:100A20002DE9F04705460E4617469846DDF820901A
:100A3000781B401CA8EB0601491C48434400434670
:100A40003A463146284602F09EF801200E490870C9
:100A500013E04FF6FE70844202D9241A824603E066
:100A6000002009490870A2461FFA8AF24946074841
:100A700001F044FB4FF6FE708144034800780028E3
:100A8000E7D1BDE8F087000010000020100300202F
:100A900030B50468246824F4802405682C60046858
:100AA00063608468402C04D10468A2600468E1603B
:100AB00003E00468A1600468E26030BD704772B66C
:100AC00000BFFEE738B502460020009000BF92F854
:100AD0003C00012801D1022038BD012082F83C00F1
:100AE00000BF0868092816D91068C0680C780A3C4D
:100AF00004EB44050724AC40A0431468E0600C7884
:100B00000A3C04EB44048868A0401468E46820436D
:100B10001468E06013E0106800690C7804EB440589
:100B20000724AC40A043146820610C7804EB440413
:100B30008868A040146824692043146820614868CC
:100B4000072817D21068406B0C79641E04EB8405EB
:100B50001F24AC40A04314686063088880B20C79FD
:100B6000641E04EB8404A0401468646B2043146882
:100B7000606331E048680D2817D21068006B0C796B
:100B8000E41F04EB84051F24AC40A04314682063D9
:100B9000088880B20C79E41F04EB8404A040146838
:100BA000246B20431468206316E01068C06A0C7937
:100BB0000D3C04EB84051F24AC40A0431468E062A4
:100BC000088880B20C790D3C04EB8404A0401468C2
:100BD000E46A20431468E0621E4B1F4C1068A04278
:100BE0000AD10868122807D1586820F4000058601C
:100BF000586840F480005860174C1068A04222D119
:100C0000164C0868A04202D0086811281BD1586809
:100C100020F480005860586840F4000058600F4C81
:100C20000868A0420FD10E4800680E4CB0FBF4F0EB
:100C300000EB80004000009002E00098401E009011
:100C400000980028F9D100BF002082F83C0000BFC6
:100C500000BF41E7002301400020014012000010C6
:100C60000C00002040420F007047704770470000A2
:100C700070B5044600250CB9012070BD1549A06A65
:100C8000884200D000BF206C30B9204600F024F824
:100C90000020606484F83C00206C00F0100088B9EB
:100CA000206C20F4885040F0020020642046FFF7BA
:100CB00085FD00206064206C20F0020040F00100FF
:100CC000206400E0012500BF002084F83C0000BF44
:100CD0002846D2E70100000F10B586B00446142163
:100CE00001A8FFF774FC2849206888424AD100BF58
:100CF000002000902548006840F480702349086077
:100D00000846006800F48070009000BF00BF00BF7C
:100D1000002000901D481438006840F001001B4975
:100D2000143908600846006800F00100009000BF18
:100D300000BF06200190032002900020039001A92B
:100D4000134800F0DBFA134813490860002048609C
:100D5000002111488160C1604FF480610161890008
:100D60004161890081618911C16100210162416293
:100D700000F0F0F908B1FFF7A2FE00BF0648A0633B
:100D8000846300BF06B010BD00200140443802401B
:100D90000000024010640240B0020020F8B5044692
:100DA0000D4616460020009000BF94F83C00012834
:100DB00001D10220F8BD012084F83C0000BF20686A
:100DC000806800F00100A0B92068806840F0010050
:100DD00021688860484800684849B0FBF1F000EBA2
:100DE0004000009002E00098401E0090009800280B
:100DF000F9D12068806800F48070B0F5807F05D15B
:100E00002068806820F4807021688860206880688D
:100E100000F00100002865D0206C40F20161884399
:100E200040F4807020642068406800F4806028B13D
:100E3000206C20F4005040F480502064206C00F4BA
:100E40008050B0F5805F04D1606C20F006006064D3
:100E500001E00020606400BF002084F83C0000BF77
:100E6000274F2848A16BC8632748A16B086427480F
:100E7000A16BC8646FF02200216808602068406898
:100E800040F08060216848602068806840F480708D
:100E900021688860226802F14C0133462A46A06B23
:100EA00000F0CEF9786800F01F0058B9206880681B
:100EB00000F04050F0B92068806840F08040216820
:100EC000886017E012492068884213D12068806842
:100ED00000F0405070B92068806840F08040216880
:100EE000886007E0206C40F010002064606C40F0E7
:100EF0000100606400205DE70C00002040420F000C
:100F00000023014017070008AF07000895070008F5
:100F100000200140F8B50446002000908C4800688D
:100F20004FF41651B0FBF1F7A56D2E6894F85C10E4
:100F300008208840304098B12068006800F0040024
:100F400070B12068006820F004002168086094F8FF
:100F50005C1008208840A860606D40F0010060656A
:100F600094F85C1001208840304068B120684069E6
:100F700000F0800040B194F85C1001208840A86027
:100F8000606D40F00200606594F85C1004208840B9
:100F9000304068B12068006800F0020040B194F869
:100FA0005C1004208840A860606D40F0040060651B
:100FB00094F85C1010208840304078B320680068B6
:100FC00000F0080050B394F85C1010208840A8602E
:100FD0002068006800F4802080B12068006800F478
:100FE000002028B9206CC8B12046216C884715E044
:100FF000A06C98B12046A16C88470FE0206800687B
:1010000000F4807028B92068006820F0080021688A
:101010000860206C10B12046216C884794F85C1061
:10102000202088403040002865D02068006800F00B
:10103000100000285FD094F85C1020208840A86041
:1010400094F83500052828D12068006820F01600A3
:10105000216808602068406920F0800021684861AC
:10106000206C08B9A06C28B12068006820F0080046
:101070002168086094F85C103F208840A860012037
:1010800084F8350000BF002084F8340000BF206DD4
:1010900010B12046216D8847F8BD2068006800F433
:1010A000802080B12068006800F4002028B9606CBE
:1010B00010B12046616C88471DE0E06BD8B1204636
:1010C000E16B884717E02068006800F4807068B919
:1010D0002068006820F0100021680860012084F872
:1010E000350000BF002084F8340000BFE06B10B171
:1010F0002046E16B8847606D38B3606D00F00100F9
:10110000F0B1052084F835002068006820F0010067
:101110002168086000BF0098401C0090B84200D9C8
:1011200005E02068006800F001000028F3D100BF4E
:10113000012084F8350000BF002084F8340000BF8F
:10114000E06C10B12046E16C884700BFA4E70000C6
:101150000C0000202DE9F0410446002500F0C0F904
:10116000074614B90120BDE8F081606A00B100BFF4
:10117000022084F8350000BF002084F8340000BF4E
:101180002068006820F00100216808600AE000F093
:10119000A7F9C01B052805D920206065032084F825
:1011A0003500E0E72068006800F001000028EED17B
:1011B0002068056821480540D4E901010843E16839
:1011C00008432169084361690843A1690843E1694B
:1011D0000843216A08430543606A042803D1D4E91F
:1011E0000B0108430543206805602068456925F028
:1011F0000705606A0543606A04280DD1A06A0543AB
:10120000E06A48B12046FFF7B5FB28B14020606591
:10121000012084F83500A6E7206845612046FFF7E5
:101220008FFB064694F85C103F208840B060002099
:101230006065012084F83500002094E73F8010F0BD
:101240002DE9F04704460D4616461F464FF00008AC
:10125000D4F8589000BF94F83400012802D102203D
:10126000BDE8F087012084F8340000BF94F8350011
:10127000012825D1022084F83500002060653B4616
:10128000324629462046FFF703FC94F85C103F20C5
:101290008840C9F808002068006840F016002168FE
:1012A0000860206C28B12068006840F008002168C0
:1012B00008602068006840F001002168086006E0CE
:1012C00000BF002084F8340000BF4FF00208404601
:1012D000C6E7000070B5044600F002F90646254650
:1012E000681C10B104480078054400BF00F0F8F80D
:1012F000801BA842FAD370BD08000020F8B5024652
:101300000B460025002400200021C6E0012606FA35
:1013100001F51E6806EA0504AC4274D11E7906F098
:101320000306012E04D01E7906F00306022E13D107
:1013300090684F000326BE40B0434F00DE68BE40B9
:1013400030439060506801268E40B0431E79C6F34A
:1013500000168E40304350601E7906F00306032EBF
:1013600009D0D0684F000326BE40B0434F009E68AE
:10137000BE403043D0601E7906F00306022E13D122
:10138000CF0802F1200656F827004E07F70E0F2669
:10139000BE40B0434F07FF0E1E69BE403043CF082A
:1013A00002F1200646F8270010684F000326BE40D1
:1013B000B0431E7906F003064F00BE403043106074
:1013C0005E6806F44036002E66D000BF0026009608
:1013D000344E366846F48046324F3E603E463668AC
:1013E00006F48046009600BF00BF2F4E8F0856F8C7
:1013F00027008E07370F0F26BE40B0432B4EB24258
:1014000002D1002615E047E0294EB24201D1012663
:101410000FE0284EB24201D102260AE0264EB24227
:1014200001D1032605E0254EB24201D1042600E099
:1014300007268F073F0FBE4030431B4E8F0846F8EC
:1014400027001F4E3068A0435E6806F4803606B160
:1014500020431B4E3060361D3068A0435E6806F4A2
:10146000003606B12043164E361D3060361D3068FA
:10147000A0435E6806F4801606B12043104E08367D
:101480003060361D3068A0435E6806F4001606B171
:1014900020430B4E0C363060491C1029FFF436AF48
:1014A000F8BD000044380240083801400000024006
:1014B0000004024000080240000C024000100240FC
:1014C000003C0140024613690B400BB1012000E0D3
:1014D000002070470AB1816101E00B04836170470D
:1014E00001480068704700000000002003480068C1
:1014F000034909780844014908607047000000204A
:101500000800002010B50D48006840F400700B4939
:1015100008600846006840F480600860084600687B
:1015200040F480700860032000F0A2F8012000F071
:1015300007F800F02BF8002010BD0000003C02402E
:1015400070B504460E4800784FF47A71B1FBF0F0A4
:101550000C490968B1FBF0F5284600F062FE08B1BD
:10156000012070BD102C07D200222146501E00F031
:1015700041F80548046001E00120F2E70020F0E7AF
:10158000080000200C0000200400002008B500BF67
:10159000002000900E48006840F480400C4908602C
:1015A0000846006800F48040009000BF00BF00BF04
:1015B00000200090081F006840F08050091F08605C
:1015C0000846006800F08050009000BF00BF08BDD2
:1015D0004438024001460846002809DB00F01F039A
:1015E00001229A4043099B0003F1E023C3F8002144
:1015F00000BF70472DE9F05F80460D461646002774
:1016000002F070F9074639462A46334601F00700D2
:10161000C0F1070ABAF1040F02D94FF0040A01E041
:10162000C0F1070AD14600F1040ABAF1070F02D24D
:101630004FF0000A01E0A0F1030AD4464FF0010A7E
:101640000AFA09FAAAF1010A0AEA020A0AFA0CFAE3
:101650004FF0010B0BFA0CFBABF1010B0BEA030B88
:101660004AEA0B042146404602F044F9BDE8F09FE7
:1016700000BF00F00702064B19684FF6FF03194040
:10168000044B0B4343EA0221014B196000BF704732
:101690000CED00E00000FA0570B504460D460CB9EB
:1016A000012070BD5848006800F00700A84209D228
:1016B00055490D700846006800F00700A84201D0A7
:1016C0000120EEE7207800F0020002281DD12078EA
:1016D00000F00400042805D14C48006840F4E050B4
:1016E0004A490860207800F00800082805D14748DA
:1016F000006840F46040454908604448006820F0B4
:10170000F000A168084341490860207800F001001A
:10171000A8B36068012807D13C4808380068C0F3C6
:101720004040B8B90120BCE76068022802D0606878
:10173000032807D1354808380068C0F3406048B92D
:101740000120AEE7314808380068C0F3400008B90E
:101750000120A6E72D48006820F0030061680843D7
:101760002A490860FFF7BCFE064609E0FFF7B8FE0D
:10177000801B41F28831884202D9032091E707E0BB
:101780002248006800F00C006168B0EB810FEDD1D9
:101790001D48006800F00700A84209D91A490D70D9
:1017A0000846006800F00700A84201D0012078E751
:1017B000207800F00400042807D11448006820F4C1
:1017C000E050E168084311490860207800F0080003
:1017D000082808D10D48006820F46040216940EADB
:1017E000C1000A49086000F03FF808490968C1F3E0
:1017F0000311074A515CC840064908600648006862
:10180000FFF79EFE00204CE7003C024008380240F3
:101810009A1302080C000020040000200148006810
:10182000704700000C00002000B5FFF7F7FF0449E7
:101830000968C1F38221034A515CC84000BD000021
:1018400008380240AA13020800B5FFF7E7FF044971
:101850000968C1F34231034A515CC84000BD000031
:1018600008380240AA1302082DE9F0470024002599
:101870000026A1462548006800F00C0020B104288D
:1018800005D008283AD105E0DFF8849039E0DFF888
:10189000849036E01D48001F006800F03F041B489C
:1018A000001F006800F4800078B11A481749091F2A
:1018B0000968C1F38811A0FB01700146224600238C
:1018C0003846FEF7F9FC05460EE011480F49091F9E
:1018D0000968C1F38811A0FB01700146224600236C
:1018E0003846FEF7E9FC05460848001F0068C0F3CB
:1018F0000140401C4600B5FBF6F902E0DFF810900D
:1019000000BF00BF4846BDE8F0870000083802402D
:101910000024F400001BB700F8B504460CB9012000
:10192000F8BD207800F00100002874D0F948006864
:1019300000F00C0004280DD0F648006800F00C0000
:10194000082813D1F348001F006800F48000B0F5A8
:10195000800F0BD1EF4808380068C0F340400028E2
:1019600059D06068002856D10120D9E700BF6068CF
:10197000B0F5803F08D1E7480838006840F480306F
:10198000E449083908601EE06068B0F5A02F0DD169
:10199000E0480838006840F48020DE4908390860D3
:1019A0000846006840F4803008600CE0D9480838E8
:1019B000006820F48030D74908390860084600687C
:1019C00020F48020086000BF606890B1FFF788FDB8
:1019D000054606E0FFF784FD401B642801D903207B
:1019E0009EE7CC4808380068C0F340400028F1D09A
:1019F00011E0FFF775FD054606E0FFF771FD401B9E
:101A0000642801D903208BE7C24808380068C0F376
:101A100040400028F1D1207800F0020002285FD178
:101A2000BC48006800F00C0058B1BA48006800F0EB
:101A30000C0008281CD1B748001F006800F4800083
:101A4000B0B9B44808380068C0F3400020B1E0687D
:101A5000012801D0012063E7AE480838006820F073
:101A6000F800216940EAC100AA490839086037E056
:101A7000E06800B30120A8490860FFF731FD054682
:101A800006E0FFF72DFD401B022801D9032047E7A0
:101A9000A04808380068C0F340000028F1D09D48F5
:101AA0000838006820F0F800216940EAC10099492F
:101AB0000839086014E0002097490860FFF710FD1E
:101AC000054606E0FFF70CFD401B022801D9032064
:101AD00026E7904808380068C0F340000028F1D19C
:101AE000207800F0080008282CD16069A8B10120F6
:101AF0008A490860FFF7F4FC054606E0FFF7F0FCB2
:101B0000401B022801D903200AE782486C30006894
:101B1000C0F340000028F1D014E000207F490860A5
:101B2000FFF7DEFC054606E0FFF7DAFC401B022863
:101B300001D90320F4E677486C300068C0F3400018
:101B40000028F1D1207800F00400042870D100278B
:101B500070483830006800F0805090B900BF002015
:101B600000906C483830006840F080506949383146
:101B700008600846006800F08050009000BF00BF79
:101B800001276748006800F48070B0B964480068B5
:101B900040F4807062490860FFF7A2FC054606E049
:101BA000FFF79EFC401B022801D90320B8E65C48E1
:101BB000006800F480700028F2D000BFA0680128FF
:101BC00008D154486830006840F00100514968313C
:101BD00008601DE0A06805280DD14E4868300068F7
:101BE00040F004004B49683108600846006840F046
:101BF000010008600CE047486830006820F00100F0
:101C00004449683108600846006820F00400086014
:101C100000BFA068A8B1FFF763FC054609E0FFF725
:101C20005FFC401B41F28831884202D9032077E6ED
:101C300026E0384868300068C0F340000028EED045
:101C400013E0FFF74DFC054608E0FFF749FC401B99
:101C500041F28831884201D9032061E62D4868307D
:101C60000068C0F340000028EFD1012F07D12948B8
:101C70003830006820F0805026493831086000BFB5
:101C8000A069002845D02348006800F00C0008280F
:101C90005DD0A069022845D100201F490866FFF7E2
:101CA0001FFC054606E0FFF71BFC401B022801D97C
:101CB000032035E6174808380068C0F34060002864
:101CC000F1D1D4E907010843616A40EA8111012298
:101CD000A06AC2EB500041EA00412C20005D41EABD
:101CE00000600C49091F086001200B490866FFF7D6
:101CF000F7FB054606E0FFF7F3FB401B022801D97E
:101D000003200DE6034808380068C0F3406000284F
:101D1000F1D049E00838024000004742800E4742B7
:101D200000700040002021490866FFF7D9FB0546F6
:101D300006E0FFF7D5FB401B022801D90320EFE5A1
:101D40001B480068C0F340600028F2D12CE0A06975
:101D5000012800D1E4E51648001D0668A0690128A5
:101D600020D006F48001E06981421BD106F03F01DA
:101D7000206A814216D147F6C0703040616AB0EBEC
:101D8000811F0FD106F440310122A06AC2EB50003E
:101D9000B1EB004F06D106F070612C20005DB1EB75
:101DA000006F01D00120BBE50020B9E500004742EB
:101DB00000380240704710B504460CB9012010BD30
:101DC000606A38B96068B0F5827F00D105E0002113
:101DD000E16102E00021216161610021A16294F8CA
:101DE000510028B9002084F85000204600F048F83F
:101DF000022084F851002068006820F0400021682B
:101E00000860A08800F48270218901F4044108432D
:101E1000A18901F400610843217C01F0020108431B
:101E2000217D01F001010843218B01F40071084379
:101E3000217F01F0380108432021095D01F0800174
:101E40000843218D01F400510843216808600421F2
:101E5000A06901EA104094F8241001F01001084331
:101E6000216848602068C06920F400602168C8616A
:101E700000206065012084F8510000209FE70000E9
:101E800010B586B00446142101A8FEF7A0FB2A492C
:101E9000206888424DD100BF00200090274800688C
:101EA00040F48050254908600846006800F48050DE
:101EB000009000BF00BF00BF002000901F481438F2
:101EC000006840F001001D491439086008460068A8
:101ED00000F00100009000BF00BFA0200190022090
:101EE000029000200390032004900520059001A992
:101EF0001348FFF703FA1348134908604FF0806056
:101F000048604021104881600021C1604FF4806129
:101F10000161002141618161C16101624162FFF79C
:101F200019F908B1FEF7CBFD00BF0748A064846330
:101F300000BF06B010BD0000003001404438024030
:101F40000000024040640240680300202DE9F84F81
:101F50000446884616461D464FF0000A00BF94F816
:101F60005000012802D10220BDE8F88F012084F83A
:101F7000500000BFFFF7B4FA0746B14694F851008D
:101F8000012802D04FF0020AADE0B8F1000F00D0F6
:101F900016B94FF0010AA6E0032084F85100002092
:101FA0006065C4F83080A686E686A063A087E087D7
:101FB00060642064A068B0F5004F0BD12068006811
:101FC00020F04000216808602068006840F48040EC
:101FD000216808602068006800F04000402805D0B3
:101FE0002068006840F0400021680860E068B0F5B3
:101FF000006F2FD1606810B1B9F1010F09D1206BCA
:1020000000882168C860206B801C2063E08E401E21
:10201000E0861BE02068806800F0020002280AD1F8
:10202000206B00882168C860206B801C2063E08ED4
:10203000401EE0860AE0FFF753FAC01BA84201D316
:10204000681C00B915B94FF0030A4CE0E08E002877
:10205000E0D12EE0606810B1B9F1010F09D1206B19
:10206000007821680873206B401C2063E08E401EBE
:10207000E0861BE02068806800F0020002280AD198
:10208000206B007821680873206B401C2063E08E71
:10209000401EE0860AE0FFF723FAC01BA84201D3E6
:1020A000681C00B915B94FF0030A1CE0E08E002847
:1020B000E0D13A462946204601F044F808B12020F4
:1020C0006065A06850B900BF002000902068C0681B
:1020D000009020688068009000BF00BF606D08B16C
:1020E0004FF0010A00BF012084F8510000BF00201A
:1020F00084F8500000BF504636E700002DE9F0415B
:1021000004460E461546002700BF94F850000128EB
:1021100002D10220BDE8F081012084F8500000BF08
:1021200094F85100012801D0022758E006B10DB9FA
:10213000012754E0032084F85100002060652663E5
:10214000A586E586A06360642064A087E087A06818
:10215000B0F5004F0BD12068006820F040002168E6
:1021600008602068006840F48040216808601F48CB
:10217000A16C08641E48A16CC8631E48A16CC864A9
:102180000020A16C0865E38ED4F800C00CF10C02AD
:10219000216BA06CFFF754F840B1606D40F0100067
:1021A00060650127012084F8510018E0206800686C
:1021B00000F04000402805D02068006840F0400052
:1021C000216808602068406840F02000216848606D
:1021D0002068406840F002002168486000BF00BFEE
:1021E000002084F8500000BF384693E7B73000085D
:1021F000C53000088F30000810B504460549206836
:102200000968884205D10448007810B9034811F0E4
:1022100047F810BD10030020100000201887002090
:10222000704770B504462546681EB0F1807F01D323
:1022300001200FE0681E4FF0E02148610F214FF0B0
:10224000FF3001F057FB00204FF0E02188610720AC
:102250000861002070BD70477047000030B502462D
:102260000B4600BF92F83C00012801D1022030BD8E
:10227000012082F83C0000BF022082F83D00106877
:1022800044681068816824F070041868044310687A
:102290004460144D1068A84213D01068B0F1804F0C
:1022A0000FD0114D1068A8420BD0104D1068A842F5
:1022B00007D00F4D1068A84203D00E4D1068A842F9
:1022C00005D121F080015868014310688160012028
:1022D00082F83D0000BF002082F83C0000BF00BF34
:1022E000C5E7000000000140000400400008004075
:1022F000000C00400040014010B504460CB901201C
:1023000010BD94F83D0028B9002084F83C00204618
:1023100000F026F8022084F83D00211D206801F01D
:1023200023F8012084F8460000BF84F83E00012114
:102330003F200155402001554120015500BF00BFFD
:10234000012084F8420043200155442001554520D6
:10235000015500BF012084F83D000020D0E70000B7
:1023600038B504460E492068884217D100BF0020C6
:1023700000900C48006840F002000A4908600846D6
:10238000006800F00200009000BF00BF002203219F
:102390001D20FFF72FF91D20FFF71CF938BD0000A5
:1023A0000004004040380240014691F83D000128F9
:1023B00001D001207047022081F83D000868C06804
:1023C00040F001000B68D860164B0868984213D0A3
:1023D0000868B0F1804F0FD0134B086898420BD0BB
:1023E000124B0868984207D0114B0868984203D0F6
:1023F000104B086898420CD10868806800F007020A
:10240000062A0CD00868006840F001000B681860CC
:1024100005E00868006840F001000B6818600020C3
:10242000C8E7000000000140000400400008004030
:10243000000C0040004001402DE9F04104460D46EB
:10244000002700BF94F83C00012802D10220BDE81B
:10245000F081012084F83C0000BF022084F83D0098
:102460002068866826F0770626F47F462068866016
:102470002868502833D00CDC202850D004DC0028F9
:102480004BD0102851D149E0302849D040284CD1B8
:1024900039E060282DD0702807D0B0F5805F03D0D8
:1024A000B0F5005F41D10DE041E0D5E902136A6863
:1024B000206800F0BCFF2068866846F07706206838
:1024C000866034E0D5E902136A68206800F0AFFF47
:1024D0002068806840F480402168886027E0EA68CE
:1024E0006968206801F074F85021206800F0AAFFA4
:1024F0001DE0EA686968206801F07DF860212068C5
:1025000000F0A0FF13E0EA686968206801F060F855
:102510004021206800F096FF09E000BF00BF00BF27
:102520002968206800F08EFF01E0012700BF00BF8E
:10253000012084F83D0000BF002084F83C0000BF6B
:10254000384684E7704710B5044620680069C0F338
:102550004000D8B12068C068C0F34000B0B16FF04F
:10256000020021680861012020772068806900F05E
:10257000030018B12046FFF7E5FF05E0204600F014
:10258000DDF8204600F091F90020207720680069EE
:10259000C0F38000D8B12068C068C0F38000B0B13B
:1025A0006FF00400216808610220207720688069AC
:1025B00000F4407018B12046FFF7C4FF05E0204644
:1025C00000F0BCF8204600F070F900202077206869
:1025D0000069C0F3C000D8B12068C068C0F3C00073
:1025E000B0B16FF0080021680861042020772068EE
:1025F000C06900F0030018B12046FFF7A3FF05E013
:10260000204600F09BF8204600F04FF9002020778C
:1026100020680069C0F30010D8B12068C068C0F31A
:102620000010B0B16FF01000216808610820207719
:102630002068C06900F4407018B12046FFF782FF9F
:1026400005E0204600F07AF8204600F02EF9002040
:1026500020772068006900F0010058B12068C06848
:1026600000F0010030B16FF00100216808612046E0
:1026700000F092F920680069C0F3C01058B12068DA
:10268000C068C0F3C01030B16FF0800021680861ED
:102690002046FFF7E0FD20680069C0F3801058B1C4
:1026A0002068C068C0F3801030B16FF0400021682E
:1026B0000861204600F07EF920680069C0F34010F0
:1026C00058B12068C068C0F3401030B16FF02000EE
:1026D000216808612046FFF7BFFD10BD10B586B028
:1026E0000446142101A8FDF772FF114920688842B1
:1026F0001CD100BF002000900E48006840F001008F
:102700000C4908600846006800F00100009000BF16
:1027100000BF40200190022002900020039004900E
:102720000220059001A90448FEF7E8FD06B010BD9F
:1027300000040040303802400000024070472DE99C
:10274000F04104460D461646002700BF94F83C00B1
:10275000012802D10220BDE8F081012084F83C006C
:1027600000BF36B1042E1BD0082E31D00C2E5ED106
:1027700045E02946206800F06FFE2068806940F03F
:102780000800216888612068806920F004002168C1
:10279000886120688069296908432168886148E068
:1027A0002946206800F088FE2068806940F40060B7
:1027B000216888612068806920F4806021688861D0
:1027C00020688069296940EA01202168886130E039
:1027D0002946206800F0A4FE2068C06940F0080087
:1027E0002168C8612068C06920F004002168C861C0
:1027F0002068C069296908432168C86119E0294631
:10280000206800F0C1FE2068C06940F400602168C3
:10281000C8612068C06920F480602168C8612068B0
:10282000C069296940EA01202168C86101E00127E7
:1028300000BF00BF00BF002084F83C0000BF384646
:1028400089E710B504460CB9012010BD94F83D008D
:1028500028B9002084F83C00204600F025F802202A
:1028600084F83D00211D206800F07EFD012084F8E1
:10287000460000BF84F83E0001213F200155402062
:1028800001554120015500BF00BF012084F84200DE
:1028900043200155442001554520015500BF01202A
:1028A00084F83D000020D0E77047704770B50446BB
:1028B0000D4615B994F83E000BE0042D02D13F20DF
:1028C000005D06E0082D02D14020005D01E04120BE
:1028D000005D012801D0012070BD1DB9022084F8DF
:1028E0003E000EE0042D03D102213F20015508E0F7
:1028F000082D03D102214020015502E00221412090
:10290000015501222946206800F080FD1D492068FC
:10291000884201D1012000E0002028B12068406CED
:1029200040F400402168486416492068884213D06A
:102930002068B0F1804F0FD01349206888420BD037
:1029400012492068884207D011492068884203D084
:102950001049206888420CD12068806800F0070682
:10296000062E0CD02068006840F001002168086045
:1029700005E02068006840F0010021680860002040
:10298000AAE70000000001400004004000080040E9
:10299000000C00400040014010B504460449206886
:1029A0000968884202D101201AF07AF910BD0000AE
:1029B000C8030020704710B504460CB9012010BDB3
:1029C000A06900B100E000BF94F83D0028B90020E4
:1029D00084F83C00204600F027F8242084F83D00CD
:1029E0002068C06820F400502168C860204600F0CC
:1029F00017FE2068006920F4904021680861206873
:102A0000406920F02A00216848612068C06840F4CD
:102A100000502168C86000202064202084F83D0018
:102A200084F83E000020CAE710B586B004461421A1
:102A300001A8FDF7CCFD1B492068884230D100BFBA
:102A4000002000901848006840F010001649086007
:102A50000846006800F01000009000BF00BF00BFF3
:102A60000020009010481438006840F001000E4922
:102A7000143908600846006800F00100009000BFAB
:102A800000BF4FF4C060019002200290002003902C
:102A9000032004900720059001A90448FEF72EFCAE
:102AA00006B010BD00100140443802400000024052
:102AB0002DE9F84F04460E46174699464FF0000A96
:102AC00094F83D0020285AD106B117B90120BDE87D
:102AD000F88F00BF94F83C00012801D10220F6E7EE
:102AE000012084F83C0000BF00202064212084F8ED
:102AF0003D00FEF7F5FC8246A784E784A068B0F5A8
:102B0000805F04D1206910B90025B04602E0354647
:102B10004FF0000800BF002084F83C0000BF1BE01D
:102B20005346002280212046CDF8009000F08EFE12
:102B300008B10320CBE745B9B8F80000C0F308009E
:102B40002168486008F1020803E02878216848609D
:102B50006D1CE08C401EE084E08C0028E0D15346E0
:102B6000002240212046CDF8009000F06FFE08B111
:102B70000320ACE7202084F83D000020A7E70220D6
:102B8000A5E700BFFEE72DE9F04107460C461546D4
:102B90001E462A2000F00CF9384600F0F1F82846CD
:102BA00000F0EEF82B2000F003F9204600F0E8F8E2
:102BB000304600F0E5F82C2000F0FAF8BDE8F0818E
:102BC00010B5002201216D48FEF784FC6420FEF759
:102BD00081FB012211466948FEF77CFC6420FEF768
:102BE00079FB112000F0E4F87820FEF773FB362023
:102BF00000F0DEF8002000F0D5F83A2000F0D8F818
:102C0000052000F0CFF8B22000F0D2F81F2000F02D
:102C1000C9F81F2000F0C6F8002000F0C3F83320E8
:102C200000F0C0F8332000F0BDF8B72000F0C0F885
:102C3000352000F0B7F8BB2000F0BAF82B2000F0E8
:102C4000B1F8C02000F0B4F82C2000F0ABF8C2209E
:102C500000F0AEF8012000F0A5F8C32000F0A8F8BD
:102C60000F2000F09FF8C42000F0A2F8202000F010
:102C700099F8C62000F09CF8132000F093F8D020BB
:102C800000F096F8A42000F08DF8A12000F08AF85A
:102C9000D62000F08DF8A12000F084F8E02000F0AC
:102CA00087F8F02000F07EF8042000F07BF8072081
:102CB00000F078F8042000F075F8042000F072F8B5
:102CC000042000F06FF8252000F06CF8332000F0AD
:102CD00069F83C2000F066F8362000F063F8142014
:102CE00000F060F8122000F05DF8292000F05AF89A
:102CF000302000F057F8E12000F05AF8F02000F002
:102D000051F8022000F04EF8042000F04BF80520A6
:102D100000F048F8052000F045F8212000F042F8C6
:102D2000252000F03FF8322000F03CF83B2000F076
:102D300039F8382000F036F8122000F033F814206B
:102D400000F030F8272000F02DF8312000F02AF8AC
:102D5000E42000F02DF81D2000F024F8002000F001
:102D600021F8002000F01EF8212000F021F8292091
:102D700000F01EF80A20FEF7ADFA10BD0004024074
:102D800038B5044620128DF80000E0B28DF801003D
:102D90000823022269460248FFF7D8F838BD000030
:102DA0001003002010B50446204600F013F810BDB3
:102DB00010B50446002202210548FEF78BFB204691
:102DC00000F008F8012202210148FEF783FB10BD44
:102DD0000004024001B50423012269460148FFF7BF
:102DE000B5F808BD100300201FB500200090019029
:102DF000029003901A481B4908604FF480304860E5
:102E0000002118488160012101610176002180F8CC
:102E10002010C162144981620021C1600221C16198
:102E2000012180F830104161FDF722FF08B1FDF764
:102E300046FE01200090019000200290694609485A
:102E4000FDF740FE08B1FDF73AFE02200090019028
:102E500069460448FDF736FE08B1FDF730FE1FBD98
:102E600000200140680200200100000F08B500BFEB
:102E7000002000900E48006840F480000C49086073
:102E80000846006800F48000009000BF00BF0022E8
:102E900004213820FEF7AEFB3820FEF79BFB002212
:102EA00002213A20FEF7A6FB3A20FEF793FB08BD6D
:102EB0003038024000B587B0142102A8FDF787FB27
:102EC00000BF002001902348006840F080002149A5
:102ED00008600846006800F08000019000BF00BF55
:102EE00000BF002001900846006840F00100086023
:102EF0000846006800F00100019000BF00BF00BF5D
:102F0000002001900846006840F002000860084672
:102F1000006800F00200019000BF00BF0122032101
:102F20000D48FEF7D7FA01200290002003900120FF
:102F3000049002A90948FEF7E1F90320029001205C
:102F4000039004900220059002A90348FEF7D6F9E9
:102F500007B000BD303802400004024000000240CB
:102F600010B50E480E4908604FF482704860002189
:102F70000B488160C1600221016101214161490268
:102F800081610021C1610162416281620A21C162E5
:102F9000FEF711FF08B1FDF792FD10BD00300140B2
:102FA0001003002000B58DB0002009900A900B900E
:102FB0000C90079008901C216846FDF708FB2148FB
:102FC000214908606320486000211F48816040F269
:102FD000E731C1600021016180218161FFF78CF937
:102FE00008B1FDF76CFD4FF48050099009A916480F
:102FF000FFF722FA08B1FDF762FD1348FFF721FC45
:1030000008B1FDF75CFD00200790089007A90E4865
:10301000FFF724F908B1FDF752FD602000904FF44E
:103020002F7001900020029004900022694606480B
:10303000FFF785FB08B1FDF742FD0348FFF74EFBA4
:103040000DB000BD00040040C803002010B50B48BF
:103050000B4908604FF4E130486000210848816066
:10306000C16001610C21416100218161C161FFF7F3
:10307000A2FC08B1FDF723FD10BD000000100140C7
:103080001004002000BFFEE700BFFEE7704770B5E8
:103090000546AC6B2068406820F00300216848605A
:1030A000606D40F010006065012084F851002046FA
:1030B000FEF780FE70BD70B50446A56B2846FFF78D
:1030C000AFF870BDF8B50546AC6BFEF709FA0646D9
:1030D0002868006800F48070B0F5807F2DD02068EB
:1030E000406820F02000216848602068406820F097
:1030F00002002168486032466421204600F022F830
:1031000018B1606D40F020006065A06850B900BF44
:10311000002000902068C0680090206880680090BF
:1031200000BF00BF0020E086012084F85100606DE0
:1031300018B12046FEF73EFEF8BD2046FFF75CF8CA
:1031400000BFF9E77CB504460D46164616480068F0
:103150001821B0FBF1F01549B0FBF1F04FF47A7192
:10316000484301906068B0F5827F0DD12B46002264
:1031700080212046009600F01BF898B1606D40F069
:103180002000606503207CBD00BF019800B908E005
:103190000198401E019020688068C0F3C01000288C
:1031A000F3D100BF0020EEE70C00002040420F00EA
:1031B0002DE9F84F04460D4690461E46DDF828904E
:1031C000FEF78EF9A0EB0900371AFEF789F982465F
:1031D0002C480068C0F3CB307843009045E0701C69
:1031E000002842D0FEF77CF9A0EB0A00B84200D2DA
:1031F000A7BB2068406820F0E00021684860606854
:10320000B0F5827F0DD1A068B0F5004F03D0A06863
:10321000B0F5806F05D12068006820F0400021687B
:103220000860A06AB0F5005F0DD100BF206800689B
:1032300020F40050216808602068006840F40050C5
:103240002168086000BF012084F8510000BF002001
:1032500084F8500000BF0320BDE8F88FFFE7009816
:1032600000B900270098401E009020688068284020
:10327000A84201D1012000E000204045AFD100204C
:10328000EAE700000C000020704710B5FEF72EF9A9
:1032900010BD000000B593B0302107A8FDF797F9E5
:1032A000142102A8FDF793F900BF002001902348E4
:1032B000006840F08050214908600846006800F02E
:1032C0008050019000BF00BF00BF002001901C484B
:1032D000006840F440401A4908600846006800F45D
:1032E0004040019000BF00BF0120079000040890FB
:1032F00002200D9041050E9106210F91642110913D
:10330000022111910421129107A8FEF705FB08B1D3
:10331000FDF7D5FB0F2002900220039000200490BF
:103320004FF48050059000200690032102A8FEF77C
:10333000B3F908B1FDF7C3FB13B000BD403802403C
:10334000007000400348006840F4700001490860C4
:103350007047000088ED00E010B50248FFF7F3F871
:1033600010BD0000C803002010B50268204B984231
:103370000BD0B0F1804F08D01E4B984205D01E4BA9
:10338000984202D01D4B984203D122F070024B6844
:103390001A43174B984214D0B0F1804F11D0154BFF
:1033A00098420ED0144B98420BD0144B984208D040
:1033B000134B984205D0134B984202D0124B9842BF
:1033C00003D122F44072CB681A4322F080034C6987
:1033D00043EA040202608B68C3620B688362044B99
:1033E000984201D10B6903630123436110BD0000C2
:1033F000000001400004004000080040000C0040B4
:1034000000400140004401400048014030B501F057
:103410001F05012404FA05F3046A9C430462046A4C
:1034200001F01F0502FA05F52C43046230BD30B5EA
:103430000C46816821F47F4142EA03252543294354
:10344000816030BD0A46816821F0700142F00703B7
:10345000194381607047000030B5056A25F0010509
:103460000562026A4368846924F0700424F003044E
:103470000D682C4322F002028D682A430D4DA842AC
:1034800006D100BF22F00802CD682A4322F00402D0
:10349000084DA84207D123F4807323F400734D69CB
:1034A0002B438D692B43436084614D684563026201
:1034B00030BD00000000014030B5056A25F0100560
:1034C0000562026A4368846924F4E04424F4407489
:1034D0000D6844EA052422F020028D6842EA0512B4
:1034E0000E4DA84207D100BF22F08002CD6842EA0B
:1034F000051222F04002094DA84209D123F480634D
:1035000023F400634D6943EA85038D6943EA85032B
:10351000436084614D688563026230BD00000140F4
:1035200030B5056A25F480750562026A4368C4698E
:1035300024F0700424F003040D682C4322F400727C
:103540008D6842EA05220F4DA84207D100BF22F440
:103550000062CD6842EA052222F48062094DA84249
:1035600009D123F4805323F400534D6943EA051332
:103570008D6943EA05134360C4614D68C563026207
:1035800030BD00000000014030B5056A25F48055CB
:103590000562036A4468C26922F4E04222F4407280
:1035A0000D6842EA052223F400538D6843EA05338F
:1035B000064DA84204D124F480444D6944EA8514A0
:1035C0004460C2614D680564036230BD0000014083
:1035D00030B50B461446026A056A25F001050562FE
:1035E000816921F0F00141EA041122F00A021A4334
:1035F0008161026230BD30B50B461446056A25F084
:10360000100505628169026A21F4704141EA0431C2
:1036100022F0A00242EA03128161026230BD000082
:103620002DE9F84F04462068006920F44050E16815
:103630000843216808612169A0680843616908435B
:10364000E169084300902068C06849F20C61884332
:10365000009908432168C8602068406920F44070E0
:10366000A16908432168486176492068884203D0EF
:1036700075492068884203D1FEF7E6F8814602E0EA
:10368000FEF7D2F88146E069B0F5004F6CD1022018
:103690006168A0FB015003461920A9FB0070014698
:1036A0002A463846FCF708FE6421B0FBF1F04FEAE9
:1036B000001A02206168A0FB01510B461920A9FBEA
:1036C00000712A463846FCF7F7FD83460220616800
:1036D000A0FB015003461920A9FB00712A46384679
:1036E000FCF7EAFD6421B0FBF1F000EBC00101EB57
:1036F0000010ABEB8000322101EBC0006421B0FB75
:10370000F1F000F0F8000AEB400A02206168A0FB2B
:10371000015003461920A9FB007001462A4638468D
:10372000FCF7CAFD834602206168A0FB01500346F6
:103730001920A9FB00712A463846FCF7BDFD64211B
:10374000B0FBF1F000EBC00101EB0010ABEB80002F
:10375000322101EBC0006421B0FBF1F000F0070062
:103760005044216888606AE004206168A0FB015031
:1037700003461920A9FB007001462A463846FCF78B
:103780009BFD824604206168A0FB0150034619207E
:10379000A9FB007001462A463846FCF78DFD6421DE
:1037A000B0FBF1F000EBC00101EB0010AAEB8000D0
:1037B000322101EB00106421B0FBF1F000F0F00ABF
:1037C00004206168A0FB017003461920A9FB005189
:1037D0003A462846FCF770FD6421B0FBF1F00AEB95
:1037E000001A04206168A0FB01510B461920A9FBB7
:1037F00000712A463846FCF75FFD83460420616865
:10380000A0FB015003461920A9FB007001462A467F
:103810003846FCF751FD6421B0FBF1F000EBC0012C
:1038200001EB0010ABEB8000322101EB00106421B2
:10383000B0FBF1F000F00F00504421688860BDE853
:10384000F88F000000100140001401402DE9F04104
:1038500004460D4617469846069E34E0701C88B311
:103860002EB1FDF73DFEA0EB0800B0422BD900BF02
:1038700000BF21680C3151E8001F21F4D07021688D
:103880000C3141E80002002AF3D100BF00BF00BFA5
:103890002168143151E8001F21F001002168143122
:1038A00041E80002002AF3D100BF202084F83D0047
:1038B00084F83E0000BF002084F83C0000BF0320D5
:1038C000BDE8F081FFE7206800682840A84201D1E8
:1038D000012000E00020B842C0D00020F0E700BF87
:1038E000FEE7000002480068C0F3022070470000B5
:1038F0000CED00E010B5002804DB0A07130E054AA2
:10390000135406E00A07140E034A00F00F031B1FAE
:10391000D45410BD00E400E018ED00E070B504469A
:10392000002508E02168481C20600878303805EB45
:10393000850100EB41052168087800F004F80028B3
:10394000F0D1284670BD0146302903DB392901DC5E
:10395000012070470020FCE710B54021084801F025
:10396000CEFD002304222821064818F0DFFE064978
:10397000086003F021FF00200449087010BD00001A
:10398000A0050020A5780008A4000020A0000020C9
:103990002DE9F04705460F4616461C46152E30D237
:1039A000DFE806F00B3034495765839AAFCDD6F97E
:1039B000F7F6F5F4F3F2F1F0EF0028460EF032FCE2
:1039C000814600EBD9704FEA600A38460EF02AFCB7
:1039D000804600EBD870AAEB600000B22080284639
:1039E0000EF0C2FB814600EBD9704FEA600A384600
:1039F0000EF0BAFB804600EBD870AAEB600000B274
:103A000060806AE100202080608066E128460EF038
:103A100009FC814600EBD9704FEA600A38460EF087
:103A200001FC804600EBD870AAEB600000B2208059
:103A30000020608051E128460EF0F4FB80463846B5
:103A40000EF0F0FBA8EB000000B2208000206080A8
:103A500043E10020208028460EF086FB8046384651
:103A60000EF082FBA8EB000000B2608035E1284632
:103A70000EF0D8FB814600EBD9704FEA600A384659
:103A80000EF0D0FB804600EBD870AAEB600000B2CD
:103A9000208028460EF068FB804638460EF064FB16
:103AA000A8EB000000B2608017E128460EF0BAFBD8
:103AB000804638460EF0B6FBA8EB000000B220802E
:103AC00028460EF051FB804638460EF04DFBA8EB21
:103AD000000000B2608000E10020208028460EF047
:103AE00043FB814600EBD9704FEA600A38460EF07E
:103AF0003BFB804600EBD870AAEB600000B2608010
:103B0000EBE028460EF08EFB804638460EF08AFB2E
:103B1000A8EB000000B2208028460EF025FB81466D
:103B200000EBD9704FEA600A38460EF01DFB804664
:103B300000EBD870AAEB600000B26080CDE00020FE
:103B4000208038460EF010FB404200B26080C4E096
:103B500028460EF067FB814600EBD9704FEA600AF9
:103B600038460EF05FFB804600EBD870AAEB600091
:103B700000B2208038460EF0F7FA404200B2608072
:103B8000ABE09AE082E07AE067E04DE043E032E0CB
:103B90001AE012E0FFE728460EF044FB8046384664
:103BA0000EF040FBA8EB000000B2208038460EF07B
:103BB000DBFA404200B260808FE00020208028467F
:103BC0000EF0D2FA608088E028460EF02BFB81468A
:103BD00000EBD9704FEA600A38460EF023FB8046AE
:103BE00000EBD870AAEB600000B2208028460EF0EF
:103BF000BBFA608071E028460EF014FB8046384620
:103C00000EF010FBA8EB000000B2208028460EF05A
:103C1000ABFA608061E038460EF004FB404200B22F
:103C200020800020608058E038460EF0FBFA4042C9
:103C300000B2208028460EF097FA814600EBD9703A
:103C40004FEA600A38460EF08FFA804600EBD870D3
:103C5000AAEB600000B260803FE038460EF0E2FA66
:103C6000404200B2208028460EF07EFA8046384658
:103C70000EF07AFAA8EB000000B260802DE0284632
:103C80000EF0D0FA20800020608026E028460EF05A
:103C9000C9FA208028460EF067FA814600EBD970F9
:103CA0004FEA600A38460EF05FFA804600EBD870A3
:103CB000AAEB600000B260800FE028460EF0B2FA76
:103CC000208028460EF050FA804638460EF04CFA16
:103CD000A8EB000000B2608000BF00BF20882988E8
:103CE000084400B2208060886988084400B260807F
:103CF000BDE8F08730B50346B1F90040B2F9005095
:103D0000AC4202DDB1F9004001E0B2F900401C8094
:103D1000B1F90240B2F90250AC4202DDB1F9024001
:103D200001E0B2F902405C80B1F90440B2F90450FC
:103D3000AC4202DAB1F9044001E0B2F904409C80DF
:103D4000B1F90640B2F90650AC4202DAB1F90640C8
:103D500001E0B2F90640DC800120B3F90040B3F97C
:103D60000450AC4205DCB3F90240B3F90650AC4252
:103D700000DD002030BDF8B504460D46164600278C
:103D8000B4F90000B5F90010884212DBB4F9020062
:103D9000B5F9021088420CDBB4F90400B5F904103F
:103DA000884206DCB4F90600B5F90610884200DC4A
:103DB00001270FB90020F8BD0EB90120FBE72088CC
:103DC000ADF800006088ADF802003246694628462A
:103DD00000F04CF808B90020EDE7A088ADF800002D
:103DE0006088ADF8020032466946284600F03EF889
:103DF00008B90020DFE72088ADF80000E088ADF8C2
:103E0000020032466946284600F030F808B9002022
:103E1000D1E7A088ADF80000E088ADF80200324696
:103E20006946284600F022F808B90020C3E70120BF
:103E3000C1E70246B2F90000B1F90430984213DC40
:103E4000B2F90400B1F9003098420DDBB2F902007A
:103E5000B1F90630984207DCB2F90600B1F9023038
:103E6000984201DB012070470020FCE72DE9FC5F50
:103E700005460E4614464FF0000AB6F90000B5F9A3
:103E80000010884213DBB6F90000B5F9041088422F
:103E90000DDCB6F90200B5F90210884207DBB6F96D
:103EA0000200B5F90610884201DC4FF0010ABAF1B0
:103EB000000F02D10020BDE8FC9F002C01DC012096
:103EC000F9E728460EF0AEF9834600EBDB704710A9
:103ED00028460EF049F9834600EBDB704FEA600894
:103EE000474501DA384600E0404681464C4500DD52
:103EF0004C462888ADF800002888204400B2ADF870
:103F000004006888ADF802006888204400B2ADF86B
:103F10000600002231466846FFF7A8FF80B1BDF8D1
:103F20000400204400B2ADF80400BDF806002044AF
:103F300000B2ADF806003146684617F0FBFABAE762
:103F4000E888001B00B2ADF80200E888ADF8060072
:103F5000002231466846FFF789FF80B1BDF80400B2
:103F6000204400B2ADF80400BDF80200001B00B20E
:103F7000ADF802003146684617F0DCFA9BE7A888E6
:103F8000001B00B2ADF80000A888ADF804000022C4
:103F900031466846FFF76AFF80B1BDF80000001B9C
:103FA00000B2ADF80000BDF80200001B00B2ADF891
:103FB00002003146684617F0BDFA7CE76888ADF824
:103FC00002006888204400B2ADF8060000223146A5
:103FD0006846FFF74BFF80B1BDF80000001B00B240
:103FE000ADF80000BDF80600204400B2ADF80600B0
:103FF0003146684617F09EFA5DE701205BE710B591
:10400000B1F90030B2F90040A34202DAB1F9003050
:1040100001E0B2F900300380B1F90230B2F9024098
:10402000A34202DAB1F9023001E0B2F90230438072
:10403000B1F90430B2F90440A34202DDB1F9043011
:1040400001E0B2F904308380B1F90630B2F90640DC
:10405000A34202DDB1F9063001E0B2F90630C380B7
:1040600010BD2DE9FF4F87B01C46DDE91478B8F18B
:10407000020F02DA0BB0BDE8F08F07B9FAE702F0E1
:1040800093F8054628460FF011F9814609F110060C
:10409000D9F808000690686A10B12846696A88470E
:1040A00004A8DDE90712FFF725FE8346BBF1000FE8
:1040B00000D1DFE7BDF810003188401A00B2ADF83A
:1040C0001000BDF812007188401A00B2ADF812005D
:1040D000BDF814003188401A00B2ADF81400BDF8E4
:1040E00016007188401A00B2ADF81600CCB1287ADB
:1040F00000F00100A8B904A80EF06AF803904FF090
:10410000000A0AE014F80A00802801DDFF2000E020
:10411000002004F80A000AF1010A03988245F1DB45
:1041200000BF686948B1CDE90084029704AA30460F
:10413000099B06990AF035FA16E0169848B9CDE9B8
:104140000084029704AA3046099B06990AF056F8A3
:104150000AE01698CDE90084CDE9027004AA304641
:10416000099B069909F098FF00BF83E72DE9FF4FEF
:1041700089B017461C46DDE91689B9F1020F02DA4B
:104180000DB0BDE8F08FB8F1000F00D1F8E707A837
:10419000DDE90912FFF7AEFD0690069800B9EFE7DA
:1041A00002F002F8054628460FF080F882460AF130
:1041B0001006DAF808000590686A10B12846696AA6
:1041C0008847BDF81C003188401A00B2ADF81C00C9
:1041D000BDF81E007188401A00B2ADF81E00BDF88F
:1041E00020003188401A00B2ADF82000BDF822004E
:1041F0007188401A00B2ADF82200CCB1287A00F0E4
:104200000100A8B907A80DF0E3FF04904FF0000BE0
:104210000AE014F80B00802801DDFF2000E00020F8
:1042200004F80B000BF1010B04988345F1DB00BF90
:10423000686950B1CDE90079CDE9024807AA304656
:104240000A9B059919F077FA18E0189850B9CDE94A
:104250000079CDE9024807AA30460A9B059919F072
:1042600091F80BE01898CDE90079CDE90248049067
:1042700007AA30460A9B059918F0C8FF00BF7FE7E0
:10428000D0F87821C2F309428A4207DA0023D0F835
:10429000782163F31942C0F8782107E0D0F878213B
:1042A000C1EB124363F31942C0F878217047000054
:1042B0002DE9FF5F814618F0E3FC03904FF0000A00
:1042C000DB49D9F80C00086008460068C06B60B98B
:1042D0000021D7480068D0F8780161F31940D4492B
:1042E0000968C1F87801BDE8FF9F17F0C5FB17F01A
:1042F00007FBCF480068D0F87801C0F309400028D8
:1043000075D0CB4800680FF088F8002870D0C848F6
:104310000068406900287DD1C54800680EF0C6FFDE
:10432000054617F0D7FC00BFA8690028FCD100277C
:10433000BF490968B1F90010480001F027FA0746A3
:10434000D5F808B02968A868884201D1686800E0FB
:1043500028680290B64800680EF0BFFF06460024A9
:104360004BE0B348006800F5AD70005DF0BBB048AD
:1043700000685A3030F93410AD4800685A3000EB0C
:10438000C400B0F9020006FB00104FEA4008A8493B
:1043900009685A3101EBC4000DF013FF4000009092
:1043A000A34800685A3000EBC400B0F90200019045
:1043B00012E0029800EB08013846009A01F0E4FA96
:1043C0000BEB08003946009A01F0DEFA08EB4608CC
:1043D0000198401C00B20190954800685A3000EBEB
:1043E000C400B0F906100198814202E003E03BE00E
:1043F00010E0DEDA00BF601C84B28D480068D0F89F
:104400007801C0F30940A042ABDC17B1384601F097
:104410006DFA00BF4FF48071854800685A3001F092
:1044200029FB20218248006800F5AD7001F022FBD5
:1044300000217F480068D0F8780161F319407C4979
:104440000968C1F87801039818F00CFC8246784896
:104450000068806940B176480068836975485146B4
:10446000026873480068984701F064F900F0FCF8AE
:104470007148006800287AD100BF0EF01BFF054686
:104480000EF049FF0446002113F070F86A490860F5
:1044900002216948006813F0D9FF674800252E46BD
:1044A000FF2704682C2040EA06223B462946204686
:1044B00001F05BFE00BF002002905F480468029894
:1044C0000090292040EA062229462046009B01F060
:1044D00011FE00BF594800680190574804680198D0
:1044E000009048F2890040EA062229462046009BB7
:1044F00001F000FE00BF504803270468102040EA86
:1045000006223B462946204601F011FE00BF4A48DC
:104510000468112040EA06223B462946204601F065
:1045200006FE00BF44480468122040EA06223B46CB
:104530002946204601F0FBFD00BF3F4804681320D8
:1045400040EA06223B462946204601F0F0FD00BF26
:104550003BA13948006814F073F800200346062296
:10456000014600903448006814F0FEFA00BF354858
:10457000006818F077FBB0F5967F10D22D480068E0
:1045800041F28831884251D92F48006850442E4961
:1045900008602E480068401C2C49086046E018F06E
:1045A0006FFB2849086022480068C06A00684FF421
:1045B0007A71B1FBF0F52448006810B90120224956
:1045C00008602248006808B92C4608E01F480068C7
:1045D0004FF47A7148431C490968B0FBF1F400209C
:1045E0001949086019490860AC4200D92C4618489E
:1045F000006820441649086016480068401C1549A8
:10460000086018F053F9C0F164063346224612A13F
:104610000948006814F0A0F800200346062201466D
:1046200000900548006814F09FFA00BF00BF5AE6EA
:104630002C0000202800002038000020B8130208B9
:104640003F0000003C00002040000020440000200B
:1046500034000020300000202564204650530A25F5
:10466000642525204350550010B50548006830B139
:104670000348006814F0D2F900200149086010BD19
:10468000C000002010B51821014800F038FF10BD0F
:10469000AC0500202DE9FF4F8BB004469A46199DCA
:1046A000BAF1000F11D11898B0F5807F0DD100201C
:1046B000208060800C98401E00B2A0800D98401EA3
:1046C00000B2E0800FB0BDE8F08FB5F900004042C5
:1046D000189948430121C1EB202000B22080B5F990
:1046E00002004042189948430121C1EB202000B24A
:1046F0006080B5F900100C98401A189948430221BF
:1047000001EB202000B2A080B5F902100D98401AEC
:1047100018994843022101EB202000B2E080BAF151
:10472000000F14D120882988084400B220806088B6
:104730006988084400B26080A0882988084400B2D3
:10474000A080E0886988084400B2E080BAE70A20C7
:104750009AFBF0F00A900A98401C09900A9800EB26
:104760008000AAEB400B0A9800B202F0DFF9089033
:10477000099800B202F0DAF907900A985A3000B2AC
:1047800002F0D4F9069009985A3000B202F0CEF93E
:104790000590CBF10A0108984143079800FB0B10E4
:1047A0000A2190FBF1F6CBF10A01069841430598E6
:1047B00000FB0B100A2190FBF1F776117F11B4F981
:1047C0000080B4F9029007FB08F006FB1900298865
:1047D00001EBA02000B2ADF8100006FB08F007FBCB
:1047E0000900698801EBA02000B2ADF81200B4F90D
:1047F0000480B4F9029007FB08F006FB1900298831
:1048000001EBA02000B2ADF80C0006FB08F007FB9E
:104810000900698801EBA02000B2ADF80E00B4F9E0
:104820000080B4F9069007FB08F006FB1900298800
:1048300001EBA02000B2ADF8080006FB08F007FB72
:104840000900698801EBA02000B2ADF80A00B4F9B4
:104850000480B4F9069007FB08F006FB19002988CC
:1048600001EBA02000B2ADF8040006FB08F007FB46
:104870000900698801EBA02000B2ADF80600BDF97F
:104880000800BDF91010884202DABDF9080001E005
:10489000BDF91000BDF90410BDF90C20914202DAF7
:1048A000BDF9041001E0BDF90C1088420BDABDF926
:1048B0000800BDF91010884202DABDF908000DE0C9
:1048C000BDF910000AE0BDF90400BDF90C108842E2
:1048D00002DABDF9040001E0BDF90C002080BDF949
:1048E0000800BDF91010884202DDBDF9080001E0A2
:1048F000BDF91000BDF90410BDF90C20914202DD94
:10490000BDF9041001E0BDF90C1088420BDDBDF9C2
:104910000800BDF91010884202DDBDF908000DE065
:10492000BDF910000AE0BDF90400BDF90C10884281
:1049300002DDBDF9040001E0BDF90C00A080BDF965
:104940000A00BDF91210884202DABDF90A0001E03E
:10495000BDF91200BDF90610BDF90E20914202DA30
:10496000BDF9061001E0BDF90E1088420BDABDF961
:104970000A00BDF91210884202DABDF90A000DE002
:10498000BDF912000AE0BDF90600BDF90E1088421B
:1049900002DABDF9060001E0BDF90E006080BDF944
:1049A0000A00BDF91210884202DDBDF90A0001E0DB
:1049B000BDF91200BDF90610BDF90E20914202DDCD
:1049C000BDF9061001E0BDF90E1088420BDDBDF9FE
:1049D0000A00BDF91210884202DDBDF90A000DE09F
:1049E000BDF912000AE0BDF90600BDF90E108842BB
:1049F00002DDBDF9060001E0BDF90E00E08000BF58
:104A000060E600002DE9F74F86B004462068059067
:104A1000B4F908100798A0EB0108B4F90A10089837
:104A2000A0EB0109E089B0F5807F13D1206B00FB7A
:104A300008F0E16A01FB1901606A00EBA10BE06A72
:104A400000FB08F0216B01FB0901A06A00EBA1004B
:104A500004902FE0A08980B9A06B00FB08F04FEA1A
:104A60006018A06B00FB09F04FEA6019606A00EB68
:104A7000080BA06A484404901CE0A06B00FB08F0FF
:104A80004FEA6018A06B00FB09F04FEA6019206B39
:104A900000FB08F0E16A01FB1901606A00EBA12B41
:104AA000E06A00FB08F0216B01FB0901A06A00EB42
:104AB000A12004904FEA2B2604980712B4F90400B1
:104AC000B04203DC002009B0BDE8F08F002E01DA0F
:104AD0000020F8E7B4F90600B84201DC0020F2E754
:104AE000002F01DA0020EEE73420005DC0F38000E3
:104AF00050B33420005DC0F3400078B90225B4F90A
:104B000004007843684306FB050A059800EB0A0198
:104B10002A4604F1140000F07DFF2CE00325B4F9CF
:104B200004007843684306FB050A6A1E059800EBFB
:104B30000A0104F1140000F06DFF0AEB0500401EAD
:104B40000599095CA17516E04FF0000A0025208A3E
:104B500003463AB231B2019004F1180010F0B4FDEE
:104B60000290BDF80800A0823AB231B204F11800F8
:104B700010F00AFDA0753420005D00F0010060B166
:104B800013480068029002980190A08ABDF80410B2
:104B9000884201D1002096E700BFE07C08B90120DF
:104BA00091E70FFA8BF1A187049801B2E18731B246
:104BB0004020015339B242200153C4F844A084F884
:104BC0004850204600F006F8039003987BE7000069
:104BD000BC1302082DE9F04F8DB00446D4F80090C4
:104BE00094F83C000C9094F83E000B900C987028C0
:104BF0000BDA4FF0FF35B4F940002844002800DA02
:104C000000250C988030C7B213E00C9890280EDD78
:104C10000125B4F940002844B4F90410884200DBAF
:104C200000250C98C0F1FF008030C7B201E00025DC
:104C3000FF270B9870280CDA4FF0FF36B4F94200CA
:104C40003044002800DA00260B98803000F0FF087E
:104C500015E00B9890280FDD0126B4F9420030448E
:104C6000B4F90610884200DB00260B98C0F1FF0063
:104C7000803000F0FF0802E000264FF0FF08A08A15
:104C80000A90A07D069000200590049003903420A7
:104C9000005DC0F3800000285BD094F84800626C8F
:104CA00000FB052000EB0901022209A800F0BCFE70
:104CB000A28894F8480012FB00F2606C02FB060028
:104CC00000EB0901022208A800F0AEFEA28894F8C9
:104CD000480012FB00F2606C02FB060294F84800E8
:104CE00000FB052000EB0901022207A800F09CFE52
:104CF0003420005DC0F3400000287ED094F84800C6
:104D0000616C00FB05110844401E19F80000059075
:104D1000A18894F8480011FB00F1606C01FB0601CA
:104D200094F848000844401E19F800000490A18837
:104D300094F8480011FB00F1606C01FB060194F847
:104D4000480000FB05110844401E19F800000390BC
:104D500053E0208A0090B4F942204020005B2844B0
:104D600001B204F11800009B10F0AEFC0990208AFB
:104D700000904220005B304402B2B4F9401004F1CC
:104D80001800009B10F0A0FC0890208A00904220A0
:104D9000005B304402B24020005B284401B204F1C1
:104DA0001800009B10F090FC07903420005DC0F3C9
:104DB000400010B3B4F942204020005B284401B207
:104DC00004F1180010F0E0FB05904220005B304435
:104DD00002B2B4F9401004F1180010F0D5FB0490B1
:104DE0004220005B304402B24020005B284401B204
:104DF00004F1180010F0C8FB0390BA46BB463420FB
:104E0000005DC0F34000E0B306987843C7F1FF0CA3
:104E1000059B03FB0C00C0F3072104987843C7F1FE
:104E2000FF0C039B03FB0C00C0F3072201FB08F0FF
:104E3000C8F1FF0302FB0300030AA375022905DC86
:104E4000022A03DC00200DB0BDE8F08F022901DC4E
:104E50004FF00008022A01DC4FF0FF0806980228F4
:104E600001DC4FF0000A0598022801DC4FF0FF0A30
:104E70000498022801DC4FF0000B0398022803DCA1
:104E800000E002E04FF0FF0B03E0BA46BB46FF2113
:104E9000A175BAF1000F02D1099802900BE0BAF1A6
:104EA000FF0F02D10A98029005E05246DDE9091091
:104EB0000DF0B7FE0290BBF1000F02D107980190F0
:104EC0000BE0BBF1FF0F02D10898019005E05A46B4
:104ED000DDE907100DF0A5FE0190B8F1000F03D138
:104EE000BDF80400A0820FE0B8F1FF0F03D1BDF8B8
:104EF0000800A08208E04246DDE901100DF091FEB5
:104F00000090BDF80000A08201209CE72DE9F05F31
:104F10000446B4F9080001026162B4F90A00010212
:104F2000A162B4F90C000A2190FBF1F56F1CB4F9F1
:104F30000C0005EB8501A0EB4106684200B201F0D0
:104F4000F5FD8046784200B201F0F0FD8146C5F1E2
:104F50005A0000B201F0EAFD8246C7F15A0000B2E1
:104F600001F0E4FD8346C6F10A0000FB08F009FBEE
:104F700006000A2190FBF1F1E162C6F10A0000FB94
:104F80000AF00BFB06000A2190FBF1F12163E06AB5
:104F90004111E162206B41112163A07C10F019FDE9
:104FA0003421095D60F3000134200155A07C10F02C
:104FB000F3FC3421095D60F3410134200155A07CEC
:104FC000042805D0A07C052802D0A07C062807D1A3
:104FD0003420005D20F00400001D3421085505E058
:104FE0003420005D20F00401342001552168216245
:104FF000A06920F0E000A061A17CA06961F3040039
:10500000A061A188A06961F39420A061E188A069F2
:1050100061F35F50A061E08900EBD071491001F5A8
:10502000001191FBF0F2A263FF21A175208AA082FA
:10503000BDE8F09F2DE9F3478046002445480088ED
:1050400010B90020BDE8FC8743480668002514E03D
:1050500005EBC50006EB8000006A404988420ADD86
:1050600005EBC50006EB8000006A401E05EBC5019C
:1050700006EB81010862681C85B2364800888542CB
:10508000E6DB002523E0BDF8040005EBC50106EBD7
:1050900081010989884218D105EBC50006EB800023
:1050A0004168404610F0EEFB78B105EBC50006EB19
:1050B0008004216A606908442062206AB0F57A7F22
:1050C00002DD4FF47A70206205E0681C85B2214849
:1050D00000888542D7DB00BF0CB12046B2E73446DA
:1050E00001250DE005EBC50006EB8000006A216A92
:1050F000884203DA05EBC50006EB8004681C85B224
:10510000144800888542EDDB606810B1204611F03C
:105110004FF817F0B5FD814641462046019A11F03F
:10512000A7F8074647B92421204600F0DBFC4FF0E2
:1051300000402062002085E700202062606918B9E5
:10514000484617F08FFD6061606908B90120606111
:10515000204677E750000020A800002001000080D2
:1051600010B51021134800F0CAF911F035F80446C3
:1051700000BF20460DF074FF30B9224600230EA078
:105180000DF074FF00BFFEE700BF04B910BD0E496B
:10519000204611F001F90D49204611F0FFF80C49A5
:1051A000204611F0FDF80B49204611F0F3F800BF3E
:1051B000ECE70000B80500204F7574206F66206D85
:1051C000656D6F7279000000975B0108255F01082B
:1051D000E96001086D5B010810B50021084612F076
:1051E000CBF810BD70B504460D46002610212846A8
:1051F00000F090FC2078012804D1208C2880608C5D
:1052000068800CE02078022802D1606A686006E0BD
:105210002078042803D10A2068600020A8816068F3
:1052200020B129462046626890470646304670BD48
:105230007FB504463D49E068086008460068C068DC
:1052400000B97FBD394800680BF0BAFB37480068E9
:1052500090F85000C0F3800000B1F2E700BF69464B
:1052600032480068FFF7BEFF0546304800680BF083
:10527000A7FB00202E4908609DF80E002B49096805
:1052800008772A480068007F012807D117F0F8FC4A
:1052900026490968C968C1F87C010EE02348006806
:1052A0000078042809D1BDF80C0030B117F0E8FCF3
:1052B0001E490968C968C1F87C011C48006800786B
:1052C000012805D16946194800680BF05FF81FE016
:1052D000164800680078022805D16946134800681E
:1052E0000AF0B8FE14E0114800680078042805D1DF
:1052F00069460E4800680AF0B7FB09E00B480068F1
:105300000078032804D16946084800680AF02DF89F
:10531000064800680BF054FB002DA0D10020034983
:1053200008600349086000BF8BE7000014000020FC
:10533000180000202DE9FF4104460F4614B90DF076
:10534000B9FF04460CB9BDE8FF813FB90021D4F88C
:10535000780161F31940C4F87801F4E70020ADF852
:105360000800ADF80A0020460DF0B7FF401E00B25D
:10537000ADF80C0020460EF02DF8401E00B2ADF83E
:105380000E0002AA39466846FEF7B4FC0646002E17
:105390004CD0206918B16946204622699047002503
:1053A0000BE004F15A0000EBC50100226846FEF74D
:1053B000E2FC00B1C7E7681C85B2D4F87801C0F3FD
:1053C0000940A842EDDCD4F87801C0F30940202858
:1053D0000BDAD4F87811C1F3094204F15A0101EB58
:1053E000C20069460CF065FE11E00021D4F8780196
:1053F00061F31940C4F87801D4F87811C1F3094277
:1054000004F15A0101EBC20002A90CF052FED4F8DB
:105410007801000C401CD4F8781160F31941C4F8ED
:1054200078110321E06A17F03BFB00BF00BF8AE759
:105430002DE9F04107460C4615461E4629463846DA
:1054400000F020F9AEB100222946204618F06EFA8D
:1054500029462046626818F05BFA606820B12A4647
:105460002046616818F062FA6560A068B0B9A5606E
:1054700014E029462046A26818F058FA002229466E
:10548000204618F045FAA06820B12A462046A168B7
:1054900018F03EFAA560606800B96560BDE8F0816B
:1054A0000146002001B14868704770B506460024E7
:1054B0003046FFF7F5FF054605E0641C29463046F7
:1054C00000F005F80546002DF7D1204670BD0246D4
:1054D0000AB9002070470B461068001D0344186885
:1054E000F8E702460AB9002070470B4610680344EB
:1054F0001868F9E70146002001B18868704700226A
:1055000042608260CA1C22F003010160704770B5DE
:105510000446216801F1080013F014FA0546A5B10C
:1055200000222946204618F001FA294620466268E2
:1055300018F0EEF9606820B12A462046616818F03C
:10554000F5F96560A06800B9A560284670BD2DE931
:10555000F04106460D4606B115B90020BDE8F081C0
:105560003046FFF79DFFA84206D13046FFF7CFFF38
:10557000044624BB0020F1E7316801F1080013F074
:10558000E1F904460CB90020E8E729463046FFF768
:10559000A8FF074622463946304618F0B9F93A4680
:1055A0002146304618F0C2F922462946304618F006
:1055B000BDF92A462146304618F0AAF900BF204618
:1055C000CCE770B50446216801F1080013F0BAF980
:1055D0000546A5B100222946204618F099F929462A
:1055E0002046A26818F0A2F9A06820B12A462046F9
:1055F000A16818F08DF9A560606800B9656028465B
:1056000070BD014609B901207047486818B988681B
:1056100008B90120F8E70020F6E72DE9F041074638
:105620000D461646B54201D1BDE8F0812EB1314696
:105630003846FFF756FF044603E03846FFF75AFFA7
:105640000446A54200D1EFE72946384600F01AF893
:105650002A462146384618F05BF922462946384644
:1056600018F064F92A463146384618F05FF9324698
:105670002946384618F04CF906B9BD6004B97D607A
:1056800000BFD1E72DE9F04104460D462046FFF763
:1056900007FFA8420FD129462046FFF718FF606098
:1056A000606810B90020A0602FE0002220466168E9
:1056B00018F03CF929E02046FFF71CFFA8420FD163
:1056C00029462046FFF70DFFA060A06810B9002012
:1056D00060601AE000222046A16818F019F914E071
:1056E00029462046FFF7FDFE064629462046FFF7DD
:1056F000EEFE07463A463146204618F009F9324692
:105700003946204618F012F900BFBDE8F081F0B527
:105710000446059D944201DB2846F0BD8C4201DC25
:105720001846FAE7571AEE1A601A704390FBF7F022
:105730001844F2E710B5002406E00020114901EBFF
:10574000C4018871601CC4B2022CF6D3002415E099
:105750000D4850F8340078B10B4951F8340013F07B
:105760005DF90020084941F8340001EBC40188715B
:10577000054901EBC4018880601CC4B2102CE7DB32
:1057800010BD0000D0000020D00500202DE9F04120
:10579000054615B90020BDE8F081102D15D800246C
:1057A00011E0434800EBC400807900F0010040B9EB
:1057B00001203F4901EBC40188713D4850F8340095
:1057C000E9E7601CC4B2022CEBD34FF0FF36002493
:1057D0002CE0384800EBC400807900F0010018BBD1
:1057E000344800EBC4008088A8421DD3314800EB48
:1057F000C4008088A84208D101202E4901EBC401D1
:1058000088712C4850F83400C5E7002E01DA66B2E2
:105810000AE0284800EBC4008088264901EBC60155
:105820008988884200DA66B2601CC4B2102CD0DBD2
:10583000002E08DB01201F4901EBC60188711D48BD
:1058400050F83600A7E7002427E01A4800EBC40010
:10585000807900F00100F0B9164951F8340029466A
:1058600013F01CF907463FB900BF00221346124847
:105870000DF0FCFB00BFFEE701200E4901EBC40167
:1058800088710C4901EBC4018D800A4840F83470DE
:1058900050F834007FE7601CC4B2102CD5DB00BF89
:1058A0000022134605A00DF0E1FB00BFFEE700005B
:1058B000D0000020D0050020D43E07084E6F20669F
:1058C000726565206275666665722E20496E637228
:1058D00065617365204C565F4D454D5F4255465F8F
:1058E0004D41585F4E554D2E0000000001460020EE
:1058F0000CE0114A52F830208A4205D100220E4BAA
:1059000003EBC0039A717047421CD0B20228F0D357
:1059100000200CE0094A52F830208A4205D10022CA
:10592000064B03EBC0039A71EDE7421CD0B210287E
:10593000F0DB00BFE7E70000D0000020D00500202A
:10594000014609B9002070470448814201D1002076
:10595000F9E70A1F10684008F5E70000C8000020BA
:105960000749084A116011460868016821F00101E1
:10597000016047F6FC72016862F35F0101607047E5
:10598000F0060020C400002070B504460D461646FF
:10599000324629462046FAF7BAFD70BD70B5044676
:1059A0000D461646324629462046FAF7B0FD70BD30
:1059B00070B504460D461646324629462046FAF78B
:1059C000A6FD70BD70B504460D4616463246294602
:1059D0002046FAF79CFD70BD70B504460D4616468C
:1059E000324629462046FAF792FD70BD70B504464E
:1059F0000D461646324629462046FAF788FD70BD08
:105A000070B504460D461646324629462046FAF73A
:105A10007EFD70BD70B504460D46164632462946D9
:105A20002046FAF774FD70BD70B504460D46164663
:105A3000324629462046FAF76AFD70BD70B5044625
:105A40000D461646324629462046FAF760FD70BDDF
:105A500070B506460C461546224629463046FAF7EA
:105A60008CFD70BD70B504460D4629462046FAF7F8
:105A70008CFD70BD70B504460D4629462046FAF7E8
:105A800084FD70BD70B504460D4629462046FAF7E0
:105A90007CFD70BD70B504460D4629462046FAF7D8
:105AA00074FD70BD70B504460D4629462046FAF7D0
:105AB0006CFD70BD70B504460D4629462046FAF7C8
:105AC00064FD70BD70B504460D4629462046FAF7C0
:105AD0005CFD70BD70B504460D4629462046FAF7B8
