:020000040800F2
:10000000688B002039020008A52F00081D27000872
:10001000A12F000835060008B536000800000000D2
:10002000000000000000000000000000F1300008A7
:100030006307000800000000A92F0008F330000843
:10004000530200085302000853020008530200083C
:10005000530200085302000853020008530200082C
:10006000530200085302000853020008530200081C
:10007000530200085302000853020008530200080C
:100080005302000853020008530200080000000059
:100090000000000000000000000000005302000803
:1000A00053020008530200085302000853020008DC
:1000B00053020008C131000853020008530200082F
:1000C00053020008530200085302000853020008BC
:1000D0005302000853020008530200080000000009
:1000E00053020008530200085302000800000000F9
:1000F00000000000000000000000000053020008A3
:1001000000000000530200085302000853020008D8
:1001100000000000000000000000000000000000DF
:100120003906000853020008490600085302000877
:100130005302000800000000000000000000000062
:100140000000000000000000000000005302000852
:10015000530200085302000853020008530200082B
:1001600053020008530200080000000000000000D5
:10017000000000000000000000000000000000007F
:100180000000000053020008000000000000000012
:10019000530200085302000800F002F800F03CF897
:1001A0000AA090E8000C82448344AAF10107DA45D2
:1001B00001D100F031F8AFF2090EBAE80F0013F0E8
:1001C000010F18BFFB1A43F0010318472C7A0000F7
:1001D0004C7A0000103A24BF78C878C1FAD8520788
:1001E00024BF30C830C144BF04680C6070470000B1
:1001F0000023002400250026103A28BF78C1FBD830
:10020000520728BF30C148BF0B6070471FB504F0CC
:10021000DEFA1FBD10B510BD00F0CFF81146FFF794
:10022000F5FF03F04BFF00F0EDF803B4FFF7F2FF2A
:1002300003BC00F0F5F80000094880470948004772
:10024000FEE7FEE7FEE7FEE7FEE7FEE7FEE7FEE786
:10025000FEE7FEE704480549054A064B70470000E3
:10026000AD3100089901000868850020688B0020E6
:10027000688700206887002053EA020C00F069803C
:100280002DE9F04B4FF00006002B1FBFB3FA83F5AA
:1002900003FA05F424FA05F65E4012BF1643B2FADB
:1002A00082F502FA05F4C5F120051EBF22FA05FC0D
:1002B00044EA0C04203556EA044C4FEA144418BFB3
:1002C000641C4FF000084FF00009904271EB030CE2
:1002D00039D3002919BFB1FA81F701FA07F6B0FA4C
:1002E00080F700FA07F6C7F120071EBF20FA07FCC7
:1002F00046EA0C062037B6FBF4FCA7EB0507103FD7
:1003000007F01F0BCBF120060CFA0BFB2CFA06F6BC
:1003100044BFB3460026202FA4BF5E464FF0000B1B
:100320005BEA060C08BF4FF0010B19EB0B09ABFBA6
:10033000027C48EB0608C01B06FB02CC0BFB03CC7F
:1003400071EB0C01C1E70B46024641464846BDE849
:10035000F08B13B54FF000004FF00001AFF30080B9
:10036000BDE81C4070474FF0000200B513469446AC
:100370009646203922BFA0E80C50A0E80C50B1F1FD
:100380002001BFF4F7AF090728BFA0E80C5048BF11
:100390000CC05DF804EB890028BF40F8042B08BFAF
:1003A000704748BF20F8022B11F0804F18BF00F8AB
:1003B000012B7047704770477047754600F02CF866
:1003C000AE4605006946534620F00700854618B042
:1003D00020B5FFF73FFFBDE820404FF000064FF08B
:1003E00000074FF000084FF0000B21F00701AC466A
:1003F000ACE8C009ACE8C009ACE8C009ACE8C00989
:100400008D46704710B50446AFF300802046BDE826
:100410001040FFF70ABF0000004870470885002021
:1004200001491820ABBEFEE726000200704770B5F8
:100430000546AC6B206C00F0500050BB206C40F4C3
:10044000007020642068806800F04050E8B9207E89
:10045000D8B92068C06A00F4700020B120688068B4
:1004600000F4806088B92068406820F0200021688E
:100470004860206C20F480702064206C00F4805070
:1004800018B9206C40F001002064204600F040FACA
:100490000BE0206C00F0100018B1204600F03AFA92
:1004A00003E0A06BC16C2846884770BD70B5054657
:1004B000AC6B40202064606C40F004006064204617
:1004C00000F028FA70BD70B50446A56B284600F010
:1004D00020FA70BD55494A6822F440324A604A68A1
:1004E00043681A434A600268526822F480720368C3
:1004F0005A6002685368026943EA022203685A603C
:100500000268526822F0407203685A6002685268BA
:1005100083681A4303685A600268926822F4006292
:1005200003689A6002689268C3681A4303689A6015
:100530003F4B826A9A4218D00268926822F0706239
:1005400003689A6002689268836A1A4303689A6033
:100550000268926822F0405203689A6002689268CA
:10056000C36A1A4303689A600BE00268926822F03B
:10057000706203689A600268926822F040520368D1
:100580009A600268926822F0020203689A60026828
:100590009368027E43EA420203689A602022125C5A
:1005A000A2B10268526842F4006203685A600268AD
:1005B000526822F4604203685A6002685368426AD3
:1005C000521E43EA423203685A6005E002685268EC
:1005D00022F4006203685A600268D26A22F4700250
:1005E0000368DA620268D36A828B521E43EA0252BF
:1005F0000368DA620268926822F4007203689A6003
:100600000268936890F8302043EA422203689A60B7
:100610000268926822F4806203689A6002689368B4
:10062000426943EA822203689A60704700230140CE
:100630000100000F00BFFEE710B5024800F0BEFA4F
:1006400010BD00008001002010B5024800F0B6FA8D
:1006500010BD000038020020014608781038182329
:10066000B0FBF3F20848805CC865032A05D9086826
:100670006FF30900001D886503E008686FF3090047
:100680008865886D70470000E24700080146002039
:100690008A6A8B69CBB932B1012A0DD0022A03D004
:1006A000032A10D10EE000BFCB6A03F08073B3F1D0
:1006B000807F00D1012007E0CB6AB3F1C07F00D179
:1006C000012001E000E000BF34E08B69B3F5005F7A
:1006D0001AD132B1012A07D0022A03D0032A11D13C
:1006E0000AE000BF01200EE0CB6A03F08073B3F193
:1006F000807F00D1012006E0CB6AB3F1C07F00D13A
:10070000012000E000BF15E032B1012A05D0022A25
:1007100004D0032A0CD103E000BF00BF012008E091
:10072000CB6A03F08073B3F1807F00D1012000E039
:1007300000BF00BF704730B50468246824F48024EB
:1007400005682C60046863608468402C04D10468E8
:10075000A2600468E16003E00468A1600468E260EC
:1007600030BD704772B600BFFEE7000038B50246E4
:100770000020009000BF92F83C00012801D1022027
:1007800038BD012082F83C0000BF0868092816D94E
:100790001068C0680C780A3C04EB44050724AC40A0
:1007A000A0431468E0600C780A3C04EB44048868B9
:1007B000A0401468E46820431468E06013E0106807
:1007C00000690C7804EB44050724AC40A04314688E
:1007D00020610C7804EB44048868A0401468246904
:1007E0002043146820614868072817D21068406BBE
:1007F0000C79641E04EB84051F24AC40A0431468EC
:100800006063088880B20C79641E04EB8404A04005
:100810001468646B20431468606331E048680D28F5
:1008200017D21068006B0C79E41F04EB84051F24B9
:10083000AC40A04314682063088880B20C79E41FA0
:1008400004EB8404A0401468246B204314682063E4
:1008500016E01068C06A0C790D3C04EB84051F2477
:10086000AC40A0431468E062088880B20C790D3C6B
:1008700004EB8404A0401468E46A20431468E06236
:100880001E4B1F4C1068A0420AD10868122807D1DD
:10089000586820F400005860586840F480005860A0
:1008A000174C1068A04222D1164C0868A04202D012
:1008B000086811281BD1586820F4800058605868D7
:1008C00040F4000058600F4C0868A0420FD10E4859
:1008D00000680E4CB0FBF4F000EB8000400000908C
:1008E00002E00098401E009000980028F9D100BF57
:1008F000002082F83C0000BF00BF41E70023014018
:1009000000200140120000101400002040420F009F
:10091000704770477047000070B5044600250CB959
:10092000012070BD1549A06A884200D000BF206C2C
:1009300030B9204600F024F80020606484F83C00C0
:10094000206C00F0100088B9206C20F4885040F032
:10095000020020642046FFF7BDFD00206064206C8B
:1009600020F0020040F00100206400E0012500BFFB
:10097000002084F83C0000BF2846D2E70100000FA9
:1009800010B586B00446142101A8FFF7ECFC2849F5
:10099000206888424AD100BF0020009025480068A6
:1009A00040F48070234908600846006800F48070B5
:1009B000009000BF00BF00BF002000901D48143809
:1009C000006840F001001B491439086008460068BF
:1009D00000F00100009000BF00BF0620019003203E
:1009E00002900020039001A9134800F0DBFA13489D
:1009F0001349086000204860002111488160C160EF
:100A00004FF4806101618900416189008161891130
:100A1000C16100210162416200F0F0F908B1FFF705
:100A2000A1FE00BF0648A063846300BF06B010BDEE
:100A3000002001404438024000000240106402409F
:100A400080010020F8B504460D46164600200090AF
:100A500000BF94F83C00012801D10220F8BD01201C
:100A600084F83C0000BF2068806800F00100A0B955
:100A70002068806840F0010021688860484800686C
:100A80004849B0FBF1F000EB4000009002E0009814
:100A9000401E009000980028F9D12068806800F47A
:100AA0008070B0F5807F05D12068806820F4807068
:100AB000216888602068806800F00100002865D007
:100AC000206C40F20161884340F48070206420680B
:100AD000406800F4806028B1206C20F4005040F49D
:100AE00080502064206C00F48050B0F5805F04D109
:100AF000606C20F00600606401E00020606400BFCC
:100B0000002084F83C0000BF274F2848A16BC86331
:100B10002748A16B08642748A16BC8646FF02200C6
:100B2000216808602068406840F080602168486063
:100B30002068806840F4807021688860226802F133
:100B40004C0133462A46A06B00F0CEF9786800F0DD
:100B50001F0058B92068806800F04050F0B9206844
:100B6000806840F080402168886017E01249206862
:100B7000884213D12068806800F0405070B9206826
:100B8000806840F080402168886007E0206C40F079
:100B900010002064606C40F00100606400205DE79C
:100BA0001400002040420F00002301402F040008E1
:100BB000C7040008AD04000800200140F8B5044651
:100BC000002000908C4800684FF41651B0FBF1F7FC
:100BD000A56D2E6894F85C1008208840304098B1CC
:100BE0002068006800F0040070B12068006820F000
:100BF00004002168086094F85C1008208840A86010
:100C0000606D40F00100606594F85C100120884040
:100C1000304068B12068406900F0800040B194F82D
:100C20005C1001208840A860606D40F002006065A3
:100C300094F85C1004208840304068B12068006857
:100C400000F0020040B194F85C1004208840A860D5
:100C5000606D40F00400606594F85C1010208840DE
:100C6000304078B32068006800F0080050B394F872
:100C70005C1010208840A8602068006800F4802084
:100C800080B12068006800F4002028B9206CC8B149
:100C90002046216C884715E0A06C98B12046A16CD5
:100CA00088470FE02068006800F4807028B9206849
:100CB000006820F0080021680860206C10B1204610
:100CC000216C884794F85C10202088403040002830
:100CD00065D02068006800F0100000285FD094F80C
:100CE0005C1020208840A86094F83500052828D1A1
:100CF0002068006820F016002168086020684069BC
:100D000020F0800021684861206C08B9A06C28B1EF
:100D10002068006820F008002168086094F85C10E2
:100D20003F208840A860012084F8350000BF0020E3
:100D300084F8340000BF206D10B12046216D884733
:100D4000F8BD2068006800F4802080B12068006849
:100D500000F4002028B9606C10B12046616C88470F
:100D60001DE0E06BD8B12046E16B884717E02068B2
:100D7000006800F4807068B92068006820F01000F6
:100D800021680860012084F8350000BF002084F845
:100D9000340000BFE06B10B12046E16B8847606D06
:100DA00038B3606D00F00100F0B1052084F8350023
:100DB0002068006820F001002168086000BF0098EA
:100DC000401C0090B84200D905E02068006800F09F
:100DD00001000028F3D100BF012084F8350000BFD6
:100DE000002084F8340000BFE06C10B12046E16CB4
:100DF000884700BFA4E70000140000202DE9F0415F
:100E00000446002500F0C0F9074614B90120BDE8EA
:100E1000F081606A00B100BF022084F8350000BF95
:100E2000002084F8340000BF2068006820F0010032
:100E3000216808600AE000F0A7F9C01B052805D961
:100E400020206065032084F83500E0E72068006812
:100E500000F001000028EED1206805682148054017
:100E6000D4E901010843E168084321690843616945
:100E70000843A1690843E1690843216A084305431F
:100E8000606A042803D1D4E90B01084305432068B4
:100E900005602068456925F00705606A0543606ABA
:100EA00004280DD1A06A0543E06A48B12046FFF747
:100EB000EDFB28B140206065012084F83500A6E7ED
:100EC000206845612046FFF7C7FB064694F85C1092
:100ED0003F208840B06000206065012084F8350024
:100EE000002094E73F8010F02DE9F04704460D46BE
:100EF00016461F464FF00008D4F8589000BF94F8EB
:100F00003400012802D10220BDE8F087012084F8D6
:100F1000340000BF94F83500012825D1022084F860
:100F20003500002060653B46324629462046FFF7E3
:100F300002FC94F85C103F208840C9F80800206843
:100F4000006840F0160021680860206C28B1206815
:100F5000006840F00800216808602068006840F0E0
:100F600001002168086006E000BF002084F834001A
:100F700000BF4FF002084046C6E7000070B50446C7
:100F800000F002F906462546681C10B104480078B6
:100F9000054400BF00F0F8F8801BA842FAD370BDEA
:100FA00010000020F8B502460B4600250024002062
:100FB0000021C6E0012606FA01F51E6806EA0504CE
:100FC000AC4274D11E7906F00306012E04D01E79BE
:100FD00006F00306022E13D190684F000326BE4090
:100FE000B0434F00DE68BE40304390605068012639
:100FF0008E40B0431E79C6F300168E4030435060D9
:101000001E7906F00306032E09D0D0684F00032690
:10101000BE40B0434F009E68BE403043D0601E7952
:1010200006F00306022E13D1CF0802F1200656F86F
:1010300027004E07F70E0F26BE40B0434F07FF0EA6
:101040001E69BE403043CF0802F1200646F8270053
:1010500010684F000326BE40B0431E7906F0030619
:101060004F00BE40304310605E6806F44036002EEC
:1010700066D000BF00260096344E366846F480469F
:10108000324F3E603E46366806F48046009600BF0A
:1010900000BF2F4E8F0856F827008E07370F0F26F8
:1010A000BE40B0432B4EB24202D1002615E047E0CD
:1010B000294EB24201D101260FE0284EB24201D1A1
:1010C00002260AE0264EB24201D1032605E0254E53
:1010D000B24201D1042600E007268F073F0FBE4031
:1010E00030431B4E8F0846F827001F4E3068A04340
:1010F0005E6806F4803606B120431B4E3060361D14
:101100003068A0435E6806F4003606B12043164EF0
:10111000361D3060361D3068A0435E6806F48016C8
:1011200006B12043104E08363060361D3068A043AB
:101130005E6806F4001606B120430B4E0C36306094
:10114000491C1029FFF436AFF8BD000044380240B6
:10115000083801400000024000040240000802403C
:10116000000C024000100240003C0140024613699E
:101170000B400BB1012000E0002070470AB18161F3
:1011800001E00B048361704701480068704700006C
:101190000800002003480068034909780844014911
:1011A00008607047080000201000002010B50D48AE
:1011B000006840F400700B4908600846006840F47D
:1011C000806008600846006840F480700860032072
:1011D00000F0A2F80F2000F007F800F02BF8002034
:1011E00010BD0000003C024070B504460E48007877
:1011F0004FF47A71B1FBF0F00C490968B1FBF0F5DE
:10120000284600F0CCFD08B1012070BD102C07D29B
:1012100000222146501E00F041F80548046001E01C
:101220000120F2E70020F0E7100000201400002069
:101230000C00002008B500BF002000900E48006898
:1012400040F480400C4908600846006800F4804083
:10125000009000BF00BF00BF00200090081F006882
:1012600040F08050091F08600846006800F0805078
:10127000009000BF00BF08BD443802400146084648
:10128000002809DB00F01F0301229A4043099B005C
:1012900003F1E023C3F8002100BF70472DE9F05FA0
:1012A00080460D461646002702F006FA07463946E4
:1012B0002A46334601F00700C0F1070ABAF1040FCD
:1012C00002D94FF0040A01E0C0F1070AD14600F14B
:1012D000040ABAF1070F02D24FF0000A01E0A0F1B0
:1012E000030AD4464FF0010A0AFA09FAAAF1010AE0
:1012F0000AEA020A0AFA0CFA4FF0010B0BFA0CFB8D
:10130000ABF1010B0BEA030B4AEA0B042146404602
:1013100002F0DAF9BDE8F09F00BF00F00702064BCB
:1013200019684FF6FF031940044B0B4343EA0221AF
:10133000014B196000BF70470CED00E00000FA059A
:1013400070B504460D460CB9012070BD58480068C0
:1013500000F00700A84209D255490D700846006800
:1013600000F00700A84201D00120EEE7207800F04D
:10137000020002281DD1207800F00400042805D1C5
:101380004C48006840F4E0504A490860207800F07A
:101390000800082805D14748006840F460404549E6
:1013A00008604448006820F0F000A1680843414903
:1013B0000860207800F00100A8B36068012807D118
:1013C0003C4808380068C0F34040B8B90120BCE789
:1013D0006068022802D06068032807D135480838C1
:1013E0000068C0F3406048B90120AEE731480838D2
:1013F0000068C0F3400008B90120A6E72D48006846
:1014000020F00300616808432A490860FFF7BCFE2A
:10141000064609E0FFF7B8FE801B41F2883188429A
:1014200002D9032091E707E02248006800F00C0091
:101430006168B0EB810FEDD11D48006800F0070036
:10144000A84209D91A490D700846006800F0070043
:10145000A84201D0012078E7207800F00400042899
:1014600007D11448006820F4E050E16808431149AE
:101470000860207800F00800082808D10D480068AE
:1014800020F46040216940EAC1000A49086000F088
:101490003FF808490968C1F30311074A515CC84085
:1014A0000649086006480068FFF79EFE00204CE7EA
:1014B000003C024008380240EA47000814000020BF
:1014C0000C00002001480068704700001400002054
:1014D00000B5FFF7F7FF04490968C1F38221034A09
:1014E000515CC84000BD000008380240FA470008BF
:1014F00000B5FFF7E7FF04490968C1F34231034A29
:10150000515CC84000BD000008380240FA4700089E
:101510002DE9F047002400250026A1462548006853
:1015200000F00C0020B1042805D008283AD105E0CD
:10153000DFF8849039E0DFF8849036E01D48001F22
:10154000006800F03F041B48001F006800F48000A2
:1015500078B11A481749091F0968C1F38811A0FB1F
:1015600001700146224600233846FEF785FE0546F7
:101570000EE011480F49091F0968C1F38811A0FB4B
:1015800001700146224600233846FEF775FE0546E7
:101590000848001F0068C0F30140401C4600B5FB2E
:1015A000F6F902E0DFF8109000BF00BF4846BDE842
:1015B000F0870000083802400024F400001BB70048
:1015C000F8B504460CB90120F8BD207800F0010000
:1015D000002874D0F948006800F00C0004280DD0F1
:1015E000F648006800F00C00082813D1F348001FEB
:1015F000006800F48000B0F5800F0BD1EF48083888
:101600000068C0F34040002859D06068002856D1D7
:101610000120D9E700BF6068B0F5803F08D1E748F6
:101620000838006840F48030E449083908601EE05A
:101630006068B0F5A02F0DD1E0480838006840F48C
:101640008020DE49083908600846006840F4803090
:1016500008600CE0D9480838006820F48030D74989
:10166000083908600846006820F48020086000BF40
:10167000606890B1FFF788FD054606E0FFF784FD3E
:10168000401B642801D903209EE7CC480838006835
:10169000C0F340400028F1D011E0FFF775FD05468A
:1016A00006E0FFF771FD401B642801D903208BE79A
:1016B000C24808380068C0F340400028F1D12078C3
:1016C00000F0020002285FD1BC48006800F00C0066
:1016D00058B1BA48006800F00C0008281CD1B7487F
:1016E000001F006800F48000B0B9B44808380068F2
:1016F000C0F3400020B1E068012801D0012063E779
:10170000AE480838006820F0F800216940EAC100BE
:10171000AA490839086037E0E06800B30120A84909
:101720000860FFF731FD054606E0FFF72DFD401B81
:10173000022801D9032047E7A04808380068C0F311
:1017400040000028F1D09D480838006820F0F800DB
:10175000216940EAC10099490839086014E0002075
:1017600097490860FFF710FD054606E0FFF70CFDFE
:10177000401B022801D9032026E79048083800685A
:10178000C0F340000028F1D1207800F008000828BC
:101790002CD16069A8B101208A490860FFF7F4FCE8
:1017A000054606E0FFF7F0FC401B022801D90320A4
:1017B0000AE782486C300068C0F340000028F1D08E
:1017C00014E000207F490860FFF7DEFC054606E0D4
:1017D000FFF7DAFC401B022801D90320F4E6774822
:1017E0006C300068C0F340000028F1D1207800F090
:1017F0000400042870D1002770483830006800F0D9
:10180000805090B900BF002000906C4838300068CC
:1018100040F080506949383108600846006800F09F
:101820008050009000BF00BF01276748006800F4A7
:101830008070B0B96448006840F480706249086004
:10184000FFF7A2FC054606E0FFF79EFC401B0228BE
:1018500001D90320B8E65C48006800F480700028D5
:10186000F2D000BFA068012808D154486830006851
:1018700040F001005149683108601DE0A06805286A
:101880000DD14E486830006840F004004B49683183
:1018900008600846006840F0010008600CE0474816
:1018A0006830006820F0010044496831086008464B
:1018B000006820F00400086000BFA068A8B1FFF72E
:1018C00063FC054609E0FFF75FFC401B41F28831ED
:1018D000884202D9032077E626E03848683000685D
:1018E000C0F340000028EED013E0FFF74DFC0546A2
:1018F00008E0FFF749FC401B41F28831884201D9DA
:10190000032061E62D4868300068C0F340000028DD
:10191000EFD1012F07D129483830006820F08050DE
:1019200026493831086000BFA069002845D0234807
:10193000006800F00C0008285DD0A069022845D19D
:1019400000201F490866FFF71FFC054606E0FFF769
:101950001BFC401B022801D9032035E61748083834
:101960000068C0F340600028F1D1D4E907010843C2
:10197000616A40EA81110122A06AC2EB500041EA8B
:1019800000412C20005D41EA00600C49091F0860FD
:1019900001200B490866FFF7F7FB054606E0FFF755
:1019A000F3FB401B022801D903200DE60348083849
:1019B0000068C0F340600028F1D049E008380240D8
:1019C00000004742800E474200700040002021493D
:1019D0000866FFF7D9FB054606E0FFF7D5FB401B7D
:1019E000022801D90320EFE51B480068C0F34060DE
:1019F0000028F2D12CE0A069012800D1E4E51648C6
:101A0000001D0668A069012820D006F48001E06965
:101A100081421BD106F03F01206A814216D147F670
:101A2000C0703040616AB0EB811F0FD106F44031C5
:101A30000122A06AC2EB5000B1EB004F06D106F0C4
:101A400070612C20005DB1EB006F01D00120BBE57F
:101A50000020B9E5000047420038024010B50446B6
:101A60000CB9012010BD606A38B96068B0F5827F9A
:101A700000D105E00021E16102E000212161616106
:101A80000021A16294F8510028B9002084F8500088
:101A9000204600F047F8022084F8510020680068D2
:101AA00020F0400021680860A08800F4827021893D
:101AB00001F404410843A18901F400610843217C39
:101AC00001F002010843217D01F001010843218B4F
:101AD00001F400710843217F01F0380108432021FF
:101AE000095D01F080010843218D01F40051084394
:101AF000216808600421A06901EA104094F82410CC
:101B000001F010010843216848602068C06920F492
:101B100000602168C86100206065012084F85100E0
:101B200000209FE710B586B00446142101A8FEF7F7
:101B30001AFC2A49206888424DD100BF002000903D
:101B40002748006840F4805025490860084600682E
:101B500000F48050009000BF00BF00BF0020009044
:101B60001F481438006840F001001D49143908600E
:101B70000846006800F00100009000BF00BFA020F0
:101B80000190022002900020039003200490052081
:101B9000059001A91348FFF705FA13481349086097
:101BA0004FF0806048604021104881600021C16092
:101BB0004FF480610161002141618161C161016275
:101BC0004162FFF71BF908B1FEF7CCFD00BF0748E3
:101BD000A064846300BF06B010BD00000030014067
:101BE00044380240000002404064024038020020B5
:101BF0002DE9F84F0446884616461D464FF0000A68
:101C000000BF94F85000012802D10220BDE8F88FEF
:101C1000012084F8500000BFFFF7B6FA0746B1462E
:101C200094F85100012802D04FF0020AADE0B8F15B
:101C3000000F00D016B94FF0010AA6E0032084F887
:101C4000510000206065C4F83080A686E686A06357
:101C5000A087E08760642064A068B0F5004F0BD1D6
:101C60002068006820F04000216808602068006853
:101C700040F48040216808602068006800F040005F
:101C8000402805D02068006840F0400021680860C6
:101C9000E068B0F5006F2FD1606810B1B9F1010FA5
:101CA00009D1206B00882168C860206B801C2063EC
:101CB000E08E401EE0861BE02068806800F0020095
:101CC00002280AD1206B00882168C860206B801C24
:101CD0002063E08E401EE0860AE0FFF755FAC01B45
:101CE000A84201D3681C00B915B94FF0030A4CE0B3
:101CF000E08E0028E0D12EE0606810B1B9F1010F4C
:101D000009D1206B007821680873206B401C206388
:101D1000E08E401EE0861BE02068806800F0020034
:101D200002280AD1206B007821680873206B401CC0
:101D30002063E08E401EE0860AE0FFF725FAC01B14
:101D4000A84201D3681C00B915B94FF0030A1CE082
:101D5000E08E0028E0D13A462946204601F026F9D7
:101D600008B120206065A06850B900BF0020009035
:101D70002068C068009020688068009000BF00BFA5
:101D8000606D08B14FF0010A00BF012084F85100D6
:101D900000BF002084F8500000BF504636E770B501
:101DA00004462546681EB0F1807F01D301200FE074
:101DB000681E4FF0E02148610F214FF0FF3001F025
:101DC00083FC00204FF0E02188610720086100209B
:101DD00070BD7047704710B50346002200BF93F8EE
:101DE0003C00012801D1022010BD012083F83C00F5
:101DF00000BF22F0FF00CC6840EA040222F44070E9
:101E00008C6840EA040222F480604C6840EA0402D4
:101E100022F400600C6840EA040222F480500C694D
:101E200040EA040222F400504C6940EA040222F421
:101E30008040CC6940EA04021868426400BF002078
:101E400083F83C0000BF00BFCEE7000030B502467B
:101E50000B4600BF92F83C00012801D1022030BDA2
:101E6000012082F83C0000BF022082F83D0010688B
:101E700044681068816824F070041868044310688E
:101E80004460144D1068A84213D01068B0F1804F20
:101E90000FD0114D1068A8420BD0104D1068A84209
:101EA00007D00F4D1068A84203D00E4D1068A8420D
:101EB00005D121F08001586801431068816001203C
:101EC00082F83D0000BF002082F83C0000BF00BF48
:101ED000C5E7000000000140000400400008004089
:101EE000000C00400040014010B504460CB9012030
:101EF00010BD94F83D0028B9002084F83C0020462D
:101F000000F026F8022084F83D00211D206801F031
:101F10005FF9012084F8460000BF84F83E000121EB
:101F20003F200155402001554120015500BF00BF11
:101F3000012084F8420043200155442001554520EA
:101F4000015500BF012084F83D000020D0E70000CB
:101F500038B504461949206888420FD100BF0020D7
:101F600000901748006840F00100154908600846D5
:101F7000006800F00100009000BF1DE011492068DA
:101F8000884219D100BF002000900D48001F006852
:101F900040F002000A49091F08600846006800F086
:101FA0000200009000BF00BF002203211D20FFF7A8
:101FB00075F91D20FFF762F938BD000000000140EF
:101FC0004438024000040040014691F83D000128D9
:101FD00001D001207047022081F83D000868C068E8
:101FE00040F001000B68D860164B0868984213D087
:101FF0000868B0F1804F0FD0134B086898420BD09F
:10200000124B0868984207D0114B0868984203D0D9
:10201000104B086898420CD10868806800F00702ED
:10202000062A0CD00868006840F001000B681860B0
:1020300005E00868006840F001000B6818600020A7
:10204000C8E7000000000140000400400008004014
:10205000000C0040004001402DE9F04104460D46CF
:10206000002700BF94F83C00012802D10220BDE8FF
:10207000F081012084F83C0000BF022084F83D007C
:102080002068866826F0770626F47F4620688660FA
:102090002868502833D00CDC202850D004DC0028DD
:1020A0004BD0102851D149E0302849D040284CD19C
:1020B00039E060282DD0702807D0B0F5805F03D0BC
:1020C000B0F5005F41D10DE041E0D5E902136A6847
:1020D000206801F0E0F82068866846F077062068FE
:1020E000866034E0D5E902136A68206801F0D3F80D
:1020F0002068806840F480402168886027E0EA68B2
:102100006968206801F098F95021206801F0CEF844
:102110001DE0EA686968206801F0A1F96021206883
:1021200001F0C4F813E0EA686968206801F084F9F6
:102130004021206801F0BAF809E000BF00BF00BFED
:102140002968206801F0B2F801E0012700BF00BF54
:10215000012084F83D0000BF002084F83C0000BF4F
:10216000384684E7704710B5044620680069C0F31C
:102170004000D8B12068C068C0F34000B0B16FF033
:10218000020021680861012020772068806900F042
:10219000030018B12046FFF7E5FF05E0204600F0F8
:1021A00003F9204600F0B7F9002020772068006985
:1021B000C0F38000D8B12068C068C0F38000B0B11F
:1021C0006FF0040021680861022020772068806990
:1021D00000F4407018B12046FFF7C4FF05E0204628
:1021E00000F0E2F8204600F096F900202077206801
:1021F0000069C0F3C000D8B12068C068C0F3C00057
:10220000B0B16FF0080021680861042020772068D1
:10221000C06900F0030018B12046FFF7A3FF05E0F6
:10222000204600F0C1F8204600F075F90020207724
:1022300020680069C0F30010D8B12068C068C0F3FE
:102240000010B0B16FF010002168086108202077FD
:102250002068C06900F4407018B12046FFF782FF83
:1022600005E0204600F0A0F8204600F054F90020D8
:1022700020772068006900F0010058B12068C0682C
:1022800000F0010030B16FF00100216808612046C4
:1022900000F0B8F920680069C0F3C01058B1206898
:1022A000C068C0F3C01030B16FF0800021680861D1
:1022B0002046FFF78EFD20680069C0F3801058B1FA
:1022C0002068C068C0F3801030B16FF04000216812
:1022D0000861204600F0A4F920680069C0F34010AE
:1022E00058B12068C068C0F3401030B16FF02000D2
:1022F000216808612046FFF76DFD10BD10B586B05E
:102300000446142101A8FEF72EF8234920688842CC
:102310001ED100BF002000902048006840F001005E
:102320001E4908600846006800F00100009000BFE8
:1023300000BF4FF410600190022002900020039033
:1023400004900120059001A91548FEF72BFE20E01E
:102350001449206888421CD100BF002000900F481B
:10236000006840F001000D4908600846006800F070
:102370000100009000BF00BF4020019002200290A9
:102380000020039004900220059001A90448FEF764
:1023900009FE06B010BD00000000014030380240C8
:1023A000000002400004004070472DE9F04104465F
:1023B0000D461646002700BF94F83C00012802D1C4
:1023C0000220BDE8F081012084F83C0000BF36B156
:1023D000042E1BD0082E31D00C2E5ED145E02946AC
:1023E000206800F06DFF2068806940F008002168D7
:1023F00088612068806920F0040021688861206875
:102400008069296908432168886148E02946206875
:1024100000F086FF2068806940F4006021688861D0
:102420002068806920F48060216888612068806964
:10243000296940EA01202168886130E02946206846
:1024400000F0A2FF2068C06940F008002168C86160
:102450002068C06920F004002168C8612068C06954
:10246000296908432168C86119E02946206800F0FD
:10247000BFFF2068C06940F400602168C86120681F
:10248000C06920F480602168C8612068C06929693A
:1024900040EA01202168C86101E0012700BF00BFB8
:1024A00000BF002084F83C0000BF384689E710B523
:1024B00004460CB9012010BD94F83D0028B9002055
:1024C00084F83C00204600F025F8022084F83D0006
:1024D000211D206800F07CFE012084F8460000BF2A
:1024E00084F83E0001213F20015540200155412044
:1024F000015500BF00BF012084F842004320015570
:10250000442001554520015500BF012084F83D00BD
:102510000020D0E77047704770B504460D4615B9E6
:1025200094F83E000BE0042D02D13F20005D06E050
:10253000082D02D14020005D01E04120005D01280E
:1025400001D0012070BD1DB9022084F83E000EE0CC
:10255000042D03D102213F20015508E0082D03D1AD
:1025600002214020015502E00221412001550122B3
:102570002946206800F07EFE1D492068884201D16E
:10258000012000E0002028B12068406C40F40040A9
:102590002168486416492068884213D02068B0F149
:1025A000804F0FD01349206888420BD01249206811
:1025B000884207D011492068884203D0104920681A
:1025C00088420CD12068806800F00706062E0CD0E7
:1025D0002068006840F001002168086005E020687C
:1025E000006840F00100216808600020AAE70000B0
:1025F000000001400004004000080040000C0040C2
:102600000040014010B5044604492068096888422A
:1026100003D101F08FF901F0CDF810BDE0020020E8
:10262000704710B504460CB9012010BDA06900B177
:1026300000E000BF94F83D0028B9002084F83C0079
:10264000204600F027F8242084F83D002068C06868
:1026500020F400502168C860204600F015FF206873
:10266000006920F49040216808612068406920F0EA
:102670002A00216848612068C06840F40050216841
:10268000C86000202064202084F83D0084F83E00CB
:102690000020CAE710B586B00446142101A8FDF752
:1026A00062FE1B492068884230D100BF00200090A4
:1026B0001848006840F01000164908600846006895
:1026C00000F01000009000BF00BF00BF002000908D
:1026D00010481438006840F001000E4914390860B1
:1026E0000846006800F00100009000BF00BF4FF4F2
:1026F000C06001900220029000200390032004900B
:102700000720059001A90448FEF74CFC06B010BD57
:1027100000100140443802400000024000BFFEE7C4
:102720002DE9F04107460C4615461E462A2000F0CA
:1027300037FA384600F01CFA284600F019FA2B2028
:1027400000F02EFA204600F013FA304600F010FA9E
:102750002C2000F025FABDE8F08170B504460D4646
:1027600016462B46224629462046FFF7D9FF30461B
:1027700000F0FEF970BD2DE9F04706460F461446FD
:102780001D46DDF820A0681E83B2601E82B2394665
:102790003046FFF7C5FFB8460EE0B14606E05046AA
:1027A00000F0E6F909F101001FFA80F9A145F6DB16
:1027B00008F101001FFA80F8A845EEDBBDE8F087BC
:1027C00010B5002201216D48FEF7D8FC6420FEF709
:1027D000D5FB012211466948FEF7D0FC6420FEF7C4
:1027E000CDFB112000F0DCF97820FEF7C7FB362086
:1027F00000F0D6F9002000F0CDF93A2000F0D0F931
:10280000052000F0C7F9B22000F0CAF91F2000F03F
:10281000C1F91F2000F0BEF9002000F0BBF9332001
:1028200000F0B8F9332000F0B5F9B72000F0B8F99E
:10283000352000F0AFF9BB2000F0B2F92B2000F0FA
:10284000A9F9C02000F0ACF92C2000F0A3F9C220B7
:1028500000F0A6F9012000F09DF9C32000F0A0F9D6
:102860000F2000F097F9C42000F09AF9202000F022
:1028700091F9C62000F094F9132000F08BF9D020D4
:1028800000F08EF9A42000F085F9A12000F082F973
:10289000D62000F085F9A12000F07CF9E02000F0BE
:1028A0007FF9F02000F076F9042000F073F907209A
:1028B00000F070F9042000F06DF9042000F06AF9CE
:1028C000042000F067F9252000F064F9332000F0BF
:1028D00061F93C2000F05EF9362000F05BF914202D
:1028E00000F058F9122000F055F9292000F052F9B3
:1028F000302000F04FF9E12000F052F9F02000F014
:1029000049F9022000F046F9042000F043F90520BF
:1029100000F040F9052000F03DF9212000F03AF9DF
:10292000252000F037F9322000F034F93B2000F088
:1029300031F9382000F02EF9122000F02BF9142084
:1029400000F028F9272000F025F9312000F022F9C5
:10295000E42000F025F91D2000F01CF9002000F013
:1029600019F9002000F016F9212000F019F92920AA
:1029700000F016F90A20FEF701FB10BD000402402A
:102980002DE9FF5F80468A4617469B460F9D002033
:102990000290CDF80080284605EBD071C1F34704C2
:1029A0002046E21704EB5272D2102146E31704EBE3
:1029B0005373DB10A4EBC3030BB1012300E000232E
:1029C0001A446A4392B20192A7F12000C7B20AEBFF
:1029D0000500401E83B208EB0400401E82B251463F
:1029E0004046FFF79DFE002669E00C2D07D107EB5E
:1029F0004700354901EB8000805D03901BE0102DFE
:102A000005D1324800EB0710805D039013E0182DCC
:102A100007D107EB47002E4901EB0010805D0390C2
:102A200009E0202D05D12B4800EB8710805D039035
:102A300001E0BDE8FF9F4FF000093AE01098C8B9E7
:102A4000012000FA09F00399084018B1584600F037
:102A50008FF802E00E9800F08BF80298401CC0B28C
:102A60000290029890FBF4F104FB1100E8B90020F9
:102A7000029021E0012000FA09F00399084020B1FA
:102A80005A4651464046FFF768FE08F101001FFA1A
:102A900080F80098A8EB0000A04206D1DDF8008085
:102AA0000AF101001FFA80FA06E009F1010000F0C6
:102AB000FF09B9F1080FC1DB00BF701C86B2019895
:102AC000864292DB00BFB4E702480008764C00085B
:102AD00066520008366400082DE9FF4F85B00746AE
:102AE00091461D46DDE913A600200490304606EB12
:102AF000D071C1F3470B002434E0281B401EC1B243
:102B00000A2001F02FFBB9FBF0F00A21B0FBF1F233
:102B100001FB12080498A0B9681EA04211DDB8F1AB
:102B2000000F0CD1002004FB0B71CDE900A6029030
:102B300088B22022129B0699FFF722FF10E00120A5
:102B40000490002008F13001CAB204FB0B71CDE9FA
:102B500000A6029088B2129B0699FFF711FF00BFF2
:102B6000601CC4B2AC42C8DB09B0BDE8F08F000005
:102B700038B5044620128DF80000E0B28DF801004F
:102B80000823022269460248FFF732F838BD0000E8
:102B9000E001002010B50446204600F013F810BDF7
:102BA00010B50446002202210548FEF7E7FA204648
:102BB00000F008F8012202210148FEF7DFFA10BDFB
:102BC0000004024001B50423012269460148FFF7D1
:102BD0000FF808BDE00100201FB500200090019013
:102BE000029003901A481B4908604FF480304860F7
:102BF000002118488160012101610176002180F8DF
:102C00002010C162144981620021C1600221C161AA
:102C1000012180F830104161FDF77EFE08B1FDF71B
:102C2000A1FD012000900190002002906946094812
:102C3000FDF79CFD08B1FDF795FD02200090019085
:102C400069460448FDF792FD08B1FDF78BFD1FBDF5
:102C500000200140380100200100000F08B500BF2E
:102C6000002000900E48006840F480000C49086085
:102C70000846006800F48000009000BF00BF0022FA
:102C800004213820FEF70AFB3820FEF7F7FA00226D
:102C900002213A20FEF702FB3A20FEF7EFFA08BDC8
:102CA0003038024000B587B0142102A8FDF75BFB65
:102CB00000BF002001903148006840F080002F499B
:102CC00008600846006800F08000019000BF00BF67
:102CD00000BF002001900846006840F00100086035
:102CE0000846006800F00100019000BF00BF00BF6F
:102CF000002001900846006840F002000860084685
:102D0000006800F00200019000BF00BF012248F2FD
:102D100003011B48FEF732FA012211031948FEF79E
:102D20002DFA01200290002003900120049002A9B6
:102D30001448FEF737F90320029001200390049015
:102D40000220059002A90E48FEF72CF94FF400402E
:102D50000290012003900490059002A90848FEF714
:102D600021F94FF4805002900120039004900590C7
:102D700002A90448FEF716F907B000BD303802403A
:102D8000000402400000024010B50E480E490860E1
:102D90004FF48270486000210B488160C1600221BD
:102DA000016101214161490281610021C16101622A
:102DB000416281620A21C162FEF750FE08B1FDF74F
:102DC000D1FC10BD00300140E001002000B595B0FD
:102DD000002011901290139014900F9010901C21CD
:102DE00008A8FDF7C0FA20216846FDF7BCFA324872
:102DF000324908606320486000213048816040F219
:102E0000E731C16000210161416180218161FFF7EB
:102E10006BF808B1FDF7A6FC4FF48050119011A992
:102E20002648FFF719F908B1FDF79CFC2348FFF786
:102E30003EFB08B1FDF796FC00200F9010900FA903
:102E40001E48FFF703F808B1FDF78CFC60200890DE
:102E500040F2F310099000200A900B900C900D9016
:102E60000E90002208A91548FFF79FFA08B1FDF758
:102E700079FC702008900C2208A91048FFF795FAF9
:102E800008B1FDF76FFC00200090019002900390C4
:102E90004FF4805004904000059000200790694650
:102EA0000648FEF798FF08B1FDF75CFC0348FFF702
:102EB00025FA15B000BD0000000001409802002076
:102EC00000B58DB0002009900A900B900C900790EF
:102ED00008901C216846FDF746FA21482149086000
:102EE0006320486000211F48816040F2E731C160E3
:102EF0000021016180218161FEF7F6FF08B1FDF735
:102F000031FC4FF48050099009A91648FFF7A4F846
:102F100008B1FDF727FC1348FFF7C9FA08B1FDF720
:102F200021FC00200790089007A90E48FEF78EFFAD
:102F300008B1FDF717FC602000904FF42F7001904E
:102F4000002002900490002269460648FFF72DFAFF
:102F500008B1FDF707FC0348FFF7D0F90DB000BD3D
:102F600000040040E002002010B50B480B49086047
:102F70004FF4E1304860002108488160C160016180
:102F80000C21416100218161C161FFF74AFB08B159
:102F9000FDF7E8FB10BD00000010014028030020F1
:102FA00000BFFEE700BFFEE7704700007CB50446A7
:102FB0000D461646164800681821B0FBF1F0154979
:102FC000B0FBF1F04FF47A71484301906068B0F5BE
:102FD000827F0DD12B46002280212046009600F0F2
:102FE0001BF898B1606D40F02000606503207CBD47
:102FF00000BF019800B908E00198401E01902068C8
:103000008068C0F3C0100028F3D100BF0020EEE7B5
:103010001400002040420F002DE9F84F04460D46F1
:1030200090461E46DDF82890FEF7AEF8A0EB0900AA
:10303000371AFEF7A9F882462C480068C0F3CB3057
:103040007843009045E0701C002842D0FEF79CF8C1
:10305000A0EB0A00B84200D2A7BB2068406820F06D
:10306000E000216848606068B0F5827F0DD1A068FB
:10307000B0F5004F03D0A068B0F5806F05D120688F
:10308000006820F0400021680860A06AB0F5005F89
:103090000DD100BF2068006820F40050216808604E
:1030A0002068006840F400502168086000BF0120DB
:1030B00084F8510000BF002084F8500000BF0320B6
:1030C000BDE8F88FFFE7009800B900270098401E80
:1030D0000090206880682840A84201D1012000E0CB
:1030E00000204045AFD10020EAE700001400002096
:1030F000704710B5FEF74EF810BD000000B593B054
:10310000302107A8FDF72FF9142102A8FDF72BF9AC
:1031100000BF002001902348006840F08050214902
:1031200008600846006800F08050019000BF00BFB2
:1031300000BF002001901C48006840F440401A493C
:1031400008600846006800F44040019000BF00BFDE
:10315000012007900004089002200D9041050E9177
:1031600006210F91642110910221119104211291E5
:1031700007A8FEF725FA08B1FDF7F4FA0F20029030
:1031800002200390002004904FF48050059000200E
:103190000690032102A8FEF7D3F808B1FDF7E2FA82
:1031A00013B000BD40380240007000400348006882
:1031B00040F47000014908607047000088ED00E0AD
:1031C00010B50248FEF7CFFF10BD0000E00200205E
:1031D00010B50268204B98420BD0B0F1804F08D058
:1031E0001E4B984205D01E4B984202D01D4B984270
:1031F00003D122F070024B681A43174B984214D047
:10320000B0F1804F11D0154B98420ED0144B98421C
:103210000BD0144B984208D0134B984205D0134B57
:10322000984202D0124B984203D122F44072CB68EC
:103230001A4322F080034C6943EA040202608B685F
:10324000C3620B688362044B984201D10B6903632C
:103250000123436110BD0000000001400004004054
:1032600000080040000C00400040014000440140C4
:103270000048014030B501F01F05012404FA05F3B0
:10328000046A9C430462046A01F01F0502FA05F512
:103290002C43046230BD30B50C46816821F47F4177
:1032A00042EA032525432943816030BD0A468168EF
:1032B00021F0700142F0070319438160704700005C
:1032C00030B5056A25F001050562026A4368846924
:1032D00024F0700424F003040D682C4322F0020251
:1032E0008D682A430D4DA84206D100BF22F0080286
:1032F000CD682A4322F00402084DA84207D123F4E6
:10330000807323F400734D692B438D692B43436015
:1033100084614D684563026230BD000000000140D9
:1033200030B5056A25F010050562026A43688469B4
:1033300024F4E04424F440740D6844EA052422F0A7
:1033400020028D6842EA05120E4DA84207D100BF47
:1033500022F08002CD6842EA051222F04002094DB7
:10336000A84209D123F4806323F400634D6943EA42
:1033700085038D6943EA8503436084614D688563F5
:10338000026230BD0000014030B5056A25F4807549
:103390000562026A4368C46924F0700424F00304DF
:1033A0000D682C4322F400728D6842EA05220F4D0D
:1033B000A84207D100BF22F40062CD6842EA05228C
:1033C00022F48062094DA84209D123F4805323F4EA
:1033D00000534D6943EA05138D6943EA05134360C1
:1033E000C4614D68C563026230BD00000000014049
:1033F00030B5056A25F480550562036A4468C269E0
:1034000022F4E04222F440720D6842EA052223F4DD
:1034100000538D6843EA0533064DA84204D124F4D5
:1034200080444D6944EA85144460C2614D68056476
:10343000036230BD0000014030B50B461446026AFD
:10344000056A25F001050562816921F0F00141EA74
:10345000041122F00A021A438161026230BD30B5C4
:103460000B461446056A25F0100505628169026A5B
:1034700021F4704141EA043122F0A00242EA031231
:103480008161026230BD00002DE9F84F04462068DA
:10349000006920F44050E16808432168086121690F
:1034A000A068084361690843E16908430090206807
:1034B000C06849F20C618843009908432168C860DC
:1034C0002068406920F44070A16908432168486180
:1034D00076492068884203D075492068884203D124
:1034E000FEF706F8814602E0FDF7F2FF8146E0694B
:1034F000B0F5004F6CD102206168A0FB015003467B
:103500001920A9FB007001462A463846FCF7B4FE94
:103510006421B0FBF1F04FEA001A02206168A0FBC1
:1035200001510B461920A9FB00712A463846FCF7C9
:10353000A3FE834602206168A0FB015003461920C8
:10354000A9FB00712A463846FCF796FE6421B0FBC1
:10355000F1F000EBC00101EB0010ABEB8000322179
:1035600001EBC0006421B0FBF1F000F0F8000AEBC1
:10357000400A02206168A0FB015003461920A9FB04
:10358000007001462A463846FCF776FE8346022044
:103590006168A0FB015003461920A9FB00712A466F
:1035A0003846FCF769FE6421B0FBF1F000EBC00186
:1035B00001EB0010ABEB8000322101EBC000642175
:1035C000B0FBF1F000F007005044216888606AE029
:1035D00004206168A0FB015003461920A9FB00707C
:1035E00001462A463846FCF747FE824604206168B9
:1035F000A0FB015003461920A9FB007001462A4692
:103600003846FCF739FE6421B0FBF1F000EBC00155
:1036100001EB0010AAEB8000322101EB00106421C5
:10362000B0FBF1F000F0F00A04206168A0FB01702B
:1036300003461920A9FB00513A462846FCF71CFE18
:103640006421B0FBF1F00AEB001A04206168A0FBD2
:1036500001510B461920A9FB00712A463846FCF798
:103660000BFE834604206168A0FB0150034619202D
:10367000A9FB007001462A463846FCF7FDFD64218F
:10368000B0FBF1F000EBC00101EB0010ABEB8000F0
:10369000322101EB00106421B0FBF1F000F00F00CB
:1036A000504421688860BDE8F88F00000010014098
:1036B0000014014000BFFEE702480068C0F302208A
:1036C000704700000CED00E010B5002804DB0A078D
:1036D000130E054A135406E00A07140E034A00F0BD
:1036E0000F031B1FD45410BD00E400E018ED00E0F0
:1036F0000146002001B14868704702460AB900201F
:1037000070470B461068001D03441868F8E702462E
:103710000AB9002070470B46106803441868F9E79F
:103720000146002001B1886870472DE9F041044648
:103730000D462046FFF7DCFFA8420FD12946204660
:10374000FFF7DBFF6060606810B90020A0602FE029
:1037500000222046616800F01EFD29E02046FFF7A8
:10376000DFFFA8420FD129462046FFF7D0FFA06017
:10377000A06810B9002060601AE000222046A1680D
:1037800000F0FBFC14E029462046FFF7C0FF064688
:1037900029462046FFF7B1FF07463A463146204604
:1037A00000F0EBFC32463946204600F0F4FC00BF46
:1037B000BDE8F0810EB500F087F90A2873D2DFE882
:1037C00000F08F05132135485664738110204FF6A1
:1037D000FF7100220123CDE9002102901A467821D1
:1037E0000846FFF779F988E010204FF6FF710022B4
:1037F0000123CDE900210290022278210846FFF73B
:103800006BF97AE000224FF400413D48FDF7B6FC29
:1038100010204FF6FF7100220123CDE90021029014
:10382000032278210846FFF757F966E00122D10309
:103830003348FDF7A3FC10204FF6FF71002201234F
:10384000CDE900210290042278210846FFF744F9CF
:1038500053E010204FF6FF7100220123CDE9002133
:103860000290052278210846FFF736F945E010203E
:103870004FF6FF7100220123CDE9002102900622BC
:1038800078210846FFF728F937E010204FF6FF713E
:1038900000220123CDE90021029007227821084669
:1038A000FFF71AF929E01BE010204FF6FF71002204
:1038B0000123CDE900210290082278210846FFF774
:1038C0000BF91AE010204FF6FF7100220123CDE919
:1038D00000210290092278210846FFF7FDF80CE04C
:1038E00010204FF6FF7100220123CDE90021029044
:1038F00078210846FFF7F0F800BF00BF0EBD0000BA
:103900000004024010B50146002011B9084A1068B1
:103910000CE00A1D0B6802EB5300031D044C2468E5
:1039200004F50044A34200D3002000BF10BD0000F6
:103930004000002010B52DED0A8B00249FED570AA2
:10394000B0EE408A9FED550AF0EE408A1BE020461B
:10395000611CCCB2524951F8200000EE100AB8EEBA
:10396000400A30EE080AB0EE408A2046611CCCB214
:103970004B4951F8200000EE100AB8EE400A30EE34
:10398000280AF0EE408A322CE1DB18EE100A00F033
:10399000ADFE41EC1C0B9FED430B53EC102B00F0E4
:1039A0004FFC41EC1B0B9FED410B53EC102B00F037
:1039B0009FFD41EC1A0B9FED3F0B53EC102B00F0D9
:1039C0003FFC41EC190B00F009FC08EE100A18EE60
:1039D000900A00F08BFE41EC1C0B9FED320B53EC78
:1039E000102B00F02DFC41EC1B0B9FED300B53EC2A
:1039F000102B00F07DFD41EC1A0B9FED2E0B53ECCC
:103A0000102B00F01DFC41EC190B00F0E7FB08EE59
:103A1000900A18EE900A00F069FE41EC1B0B9FED36
:103A2000230B53EC102B00F00BFC41EC1A0B9FED19
:103A3000230B53EC102B00F05BFD41EC190B00F055
:103A4000CDFB08EE900A18EE100A00F04FFE41EC94
:103A50001B0B9FED160B53EC102B00F0F1FB41EC10
:103A60001A0B9FED160B53EC102B00F041FD41ECAF
:103A7000190B00F0B3FB08EE100A124890ED000A93
:103A800080ED020A90ED010A80ED030AC0ED008A84
:103A900080ED018ABDEC0A8B10BD00000000000023
:103AA0007000002000000000000039406666666675
:103AB00066660A40000000000000B0400000000000
:103AC00000006E406C0300200EB501218B4800F011
:103AD0006FFB8B4908700846007808B109200EBDBD
:103AE000884890ED000ADFED880AB4EEE00AF1EEB6
:103AF00010FA33D290ED010ADFED840AB4EEE00A49
:103B0000F1EE10FA2ADD90ED010ADFED810AB4EE44
:103B1000E00AF1EE10FA21D290ED000ADFED7D0A05
:103B200070EEC00A9FED7C0AB1EE0C1A00EEC10ADD
:103B3000BCEEC00A10EE100A7849088010204FF63B
:103B4000FF7100220323CDE900210290734802880F
:103B500028210020FEF7C0FF0320C0E7694890ED50
:103B6000000ADFED6F0AB4EEE00AF1EE10FA33DD81
:103B700090ED010ADFED650AB4EEE00AF1EE10FA0D
:103B80002ADD90ED010ADFED620AB4EEE00AF1EE03
:103B900010FA21D290ED000ADFED5E0A70EE600AA5
:103BA0009FED5D0AB1EE0C1A00EEC10ABCEEC00A30
:103BB00010EE100A5949088010204FF6FF710022BC
:103BC0000323CDE9002102905448028828210020D7
:103BD000FEF782FF042082E74A4890ED000ADFEDFD
:103BE0004C0AB4EEE00AF1EE10FA13D290ED000A9E
:103BF000DFED460AB4EEE00AF1EE10FA0ADD90EDD0
:103C0000010ADFED410AB4EEE00AF1EE10FA01D24A
:103C1000012064E73B4890ED000ADFED3D0AB4EE79
:103C2000E00AF1EE10FA13D290ED000ADFED370A48
:103C3000B4EEE00AF1EE10FA0ADD90ED010ADFEDD4
:103C4000380AB4EEE00AF1EE10FA01DD022046E790
:103C50002C4890ED000ADFED2C0AB4EEE00AF1EEFC
:103C600010FA0AD290ED010ADFED270AB4EEE00A5D
:103C7000F1EE10FA01D2052031E7224890ED000A5A
:103C8000DFED270AB4EEE00AF1EE10FA0ADD90ED5E
:103C9000010ADFED1D0AB4EEE00AF1EE10FA01D2DE
:103CA00006201CE7174890ED000ADFED1D0AB4EE70
:103CB000E00AF1EE10FA0ADD90ED010ADFED180AD4
:103CC000B4EEE00AF1EE10FA01DD072007E70D4837
:103CD00090ED000ADFED0C0AB4EEE00AF1EE10FA06
:103CE0000AD290ED010ADFED0E0AB4EEE00AF1EE21
:103CF00010FA01DD0820F2E60020F0E600000240A4
:103D0000180000206C0300200000A0420000D242F6
:103D1000000007430000F44200007A440000002045
:103D20000000204370B50020FFF7ECFD04462FE0B3
:103D300009E0207800F0010020B12046FFF7E2FD05
:103D4000044600E001E0002CF3D100BF04B970BDCF
:103D50002046FFF7D7FD054614E0287800F0010063
:103D600058B90421286801EB5000216800EB51018B
:103D7000206861F35F00206000E005E02846FFF75F
:103D8000C1FD0546002DE8D100BF05B9DFE72C468F
:103D9000CEE7000070B505461C48854200D170BDD5
:103DA00005B9FCE72C1F206820F0010020601848AE
:103DB0000088401C164908800846008810281DDA33
:103DC0002046FFF79FFD064614E0307800F0010022
:103DD00058B90421306801EB5000216800EB510113
:103DE000206861F35F00206000E005E03046FFF7E7
:103DF00089FD0646002EE8D100BF04E000200449FA
:103E00000880FFF78FFF00BFC9E7000044000020D3
:103E10005C00002010B5044621460848FFF785FCE9
:103E20000120074908702046FFF7B4FF05480068E5
:103E3000A04202D101200449087010BD7C0300207B
:103E400063000020280000206200002070B50446B6
:103E50000025204600F006F9B0B900F01FF96060B7
:103E6000A06810B12046A16888470848007850B97A
:103E70002069002802DD2069401E2061206910B9F8
:103E80002046FFF7C7FF0125284670BD62000020CD
:103E90002DE9F0476948007810B10120BDE8F087AE
:103EA0000120664908706648007818B9002008703B
:103EB0000120F3E700F0F2F88246002500BF4FF042
:103EC000010900205F4908705F4908705F49087068
:103ED0005F48FFF70DFC5F4908605CE05D480168E2
:103EE0005B48FFF70AFC04465A480068007D00F072
:103EF000070000B953E057480068A84203D10025E5
:103F00005448046047E053480068007D00F0070013
:103F1000052804D14F480068FFF798FF2AE0CDB18B
:103F20004C480068007D00F00700297D01F0070182
:103F300088421FDD47480068FFF788FFD0B142483C
:103F40000078B8B93F480078A0B9424805684FF0FA
:103F5000000924E03F480068FFF778FF50B13A4875
:103F6000007838B93748007820B93A4805684FF0EA
:103F7000000914E03448007810B93248007808B1DC
:103F800000250CE03148007810B10025A94606E074
:103F90003048046000BF2F48006800289ED100BF51
:103FA000B9F1000F8BD04FF0FF372948FFF7A0FB86
:103FB00004460CE0204600F055F88046B84500D293
:103FC000474621462248FFF798FB044600BF24B12C
:103FD000207D00F007000028ECD1504600F050F89A
:103FE0001D49096808441C4908601C48006800F025
:103FF00047F80646B6F5FA7F1AD3174800686421D9
:104000004843B0FBF6F0164908700846007864286B
:1040100001DD002003E012480078C0F1640010497F
:10402000087000200C49086000F038F80B4908605F
:10403000002002490870384630E700006500002083
:104040006000002062000020640000206300002067
:104050007C030020280000206C0000206800002065
:104060006100002070B50446606800F009F805465C
:104070002068A84201D8002070BD2068401BFBE7E3
:1040800010B5034600F00AF804469C4201D3E31A37
:1040900001E05B422344184610BD000000BF01212F
:1040A000044A117004490868114609780029F6D0BD
:1040B00070470000200000201C00002008B5FDF71C
:1040C00075F8FFF71BF8FEF7EDFDFEF7C7FDFEF7ED
:1040D00083FDFEF749FFFEF757FEFEF7F1FEFEF700
:1040E00075FEFEF76DFB4FF6FF70F0231A460021B8
:1040F00000900846FEF73FFB4FF47A70FCF73EFF56
:1041000000201149087040F2F3101049088010494E
:10411000088000210F48FEF7FFF900210E48FEF746
:10412000FBF90C210C48FEF7F7F932220B490C4839
:10413000FCF788FC0748FDF747FF04E003480088C8
:10414000054909688862F9E70400002000000020A2
:1041500002000020E00200209802002070000020F1
:104160003801002010B50246012000E050430B1E2C
:10417000A1F10104E1B2F9D110BD37B5034601B98F
:104180003EBD08461D682D1D2844024602AC256828
:10419000156000BFF4E737B5034601B93EBD0846D8
:1041A0001D682844024602AC2568156000BFF5E78B
:1041B00070B504460D4629462046FCF7D7FF50B996
:1041C00001E0FFF765FE29462046FCF7CFFF0028F7
:1041D000F7D0012070BD0020FCE7000021F0004274
:1041E000A2F16052B2F5801F01F0004328BFD2F166
:1041F0007F6C0BD95FEA001C43EAC20242EB5070AD
:1042000018BF704728BF20F001007047B2F5801F2B
:10421000BCBF184670474FEA410C1CF5001F02D284
:10422000084600F0D9BA70B500F00CFA0000008919
:10423000FFF7F6BF4FF00040A0F580007047000088
:104240002DE9C04130B4DFF8A0C23CEA111418BF18
:104250003CEA131400F0EC8081EA03051CEA111417
:1042600044EAD57418BF1CEA131500F0C780A4EB0C
:1042700005044FF0004545EAC12145EAC32341EA60
:10428000505143EA525304F17F74994204F50034CB
:104290004FEAC0204FEAC22208BF904200F09C8043
:1042A0004FEA13650FF24016765D4FEA134506FBA1
:1042B00005F7C7F1807706FB07F74FEAD737A7FB6B
:1042C00003687642C8F58038A7FB06CE38BFA8F150
:1042D000010807FB08E64FF0000EA6FB028CE6FB88
:1042E00003CEDCF1000CCEF1004E38BFAEF1010E72
:1042F000A6FB0C584FF000074FF00005E6FB0E87B9
:10430000A1FB08C6A0FB07CE16EB0E0645F1000583
:10431000E1FB076515F1E04E7EBFA4F580345FEA4E
:1043200046066D4116F1800745F100054FEA172753
:104330004FEA066647EA0567A6F1DE46B6F1805FFA
:104340004FEA15251FD9384624F0010C05EBC4713E
:10435000BCF1FE6F01EB0C1102D8F0BCBDE800818E
:1043600024425CBF01F5801E9EEAC47F02D4F0BCEB
:10437000BDE80081244238D4F0BCA1F1C041BDE8C1
:10438000004100F0ADB94FEAD22242EA43524FEA6F
:10439000D323A7FB02864FEAD02040EA415007FB17
:1043A00003661EEA0E0F4FEAD12105FB026658BFD5
:1043B000A6EB0056B6EB00564FEA520E4EEAC37E0D
:1043C00018EB0E0E56EB530EBDD518EB02085E41EE
:1043D0007F1C55F10005B6E74FF480154FF000073C
:1043E0004FF000064FF00008ADE7F0BC4FF00000C2
:1043F00001F1C04101F00041BDE8008111EA0C1F4C
:104400000CEA131500D00CE013EA0C1F00F0258015
:104410004FF00000F0BC81EA030101F00041BDE86B
:104420000081F0BCBDE8004181EA030100F058B909
:10443000F0BCBDE8004170B500F004F9097EFC3E17
:1044400000F007B881EA03014FF0000001F00041DD
:10445000704781EA030100F043B9F0BCBDE80041B8
:104460004FF0000021497047FFFDFBF9F7F5F4F22A
:10447000F0EEEDEBE9E8E6E4E3E1E0DEDDDBDAD8FF
:10448000D7D5D4D3D1D0CFCDCCCBCAC8C7C6C5C45D
:10449000C2C1C0BFBEBDBCBBBAB9B8B7B6B5B4B374
:1044A000B2B1B0AFAEADACABAAA9A8A8A7A6A5A45F
:1044B000A3A3A2A1A09F9F9E9D9C9C9B9A99999823
:1044C0009797969595949393929191908F8F8E8EC6
:1044D0008D8C8C8B8B8A8989888887878685858453
:1044E00084838382828181800000FF070000F87F3F
:1044F000DFF848C170B51CEA111E1EBF1CEA131577
:104500009EEA0C0F95EA0C0F00F06F8081EA03041D
:1045100023EA4C134EEAD47E21EA4C1141F4801177
:1045200043F48013AE44A1FB024CA0FB0365AEF143
:104530007F7E361955EB0C05A1FB034C4CF10003B3
:10454000A0FB021C16EB0C06654153F10003094267
:1045500018BF46F0010613F4007F0BD14FEA033178
:104560004FEA0530340341EA155140EA16506FF026
:1045700003020AE04FEAC3214FEAC520F40241EAF0
:10458000555140EA56506FF0020202EB2E4201EB09
:10459000025585EACE710AD05FEA440C18BF24F0B8
:1045A000004450F1000041F1000120EAD47040F2D3
:1045B000FE7C624500D270BDA84214BF4FF080441B
:1045C0004FF04044002E08BF0024BEF1806FA8BF0A
:1045D000A1F1C041BDE8704080F282804FF0000040
:1045E00001F1C04101F0004170479EEA0C0F0CEA56
:1045F000131518BF95EA0C0F06D04FF0000081EAA2
:10460000030E0EF0004170BD00F01CF88900013E61
:1046100000F007B800F009B84FEA430C5FEA5C5CB1
:1046200008D081EA030100F05BB84FEA410C5FEA71
:104630005C5CF6D14FF00000014970470000FF07B5
:104640000000F87F0EF1020E2EF0030E5EF8046BF0
:10465000364205D4012A43EB030515F5001F12D895
:10466000012841EB010C1CF5001F0CD80ED14FEABC
:10467000D17C15F5001F0CEB4C0C0CF1020C08BFA3
:104680004CEBD37C04E04FF0080C01E04FEAD37C04
:104690000CEB4C0526FA05F606F00706B6F1040CFD
:1046A00006D20EEB860CBDE870404CF0010C604762
:1046B000DFE80CF0090B02024FF000414FF0000060
:1046C000A1F5002170BD19461046012851EB0104E7
:1046D00018BFD4F5001484BF002001F0004170BD64
:1046E0000808A0F500114FEA3101704743004FEA76
:1046F000D30C4FEA3C0C43401FBF40070CF1605104
:1047000013F0FE4F70471CF0006F03D100200CF037
:10471000004170470CF0004343EA507010B540EA86
:10472000CC0000F00EF800BF000000924FEA00013C
:10473000FFF7D6BF4FF000414FF00000A1F5002178
:1047400070470EF1020E2EF0030E5EF8044B244269
:1047500004D44FEA4102B2F17F4F11D84FEA40032F
:10476000B3F17F4F0CD80ED14FEAD07CB2F17F4F1E
:104770000CEB4C0C0CF1020C08BF4CEBD17C04E0B0
:104780004FF0080C01E04FEAD17C0CEB4C0324FA0B
:1047900003F404F00704B4F1040C06D20EEB840C0D
:1047A000BDE810404CF0010C6047DFE80CF0070852
:1047B00002024FF00040A0F5800010BD0846420004
:1047C00018BFD2F1807288BF00F0004010BD4FF0DA
:1047D0004070E1EE100A7047FF2141EAD050C00559
:1047E00070470006101600061016000000000000BA
:1047F000000001020304060708090000000001028E
:1048000003040000000000000000000000000000A1
:104810000404040404000004000014140A0000004E
:1048200000000000000000000A0A1F0A0A1F0A0A0E
:10483000000000040E1505060C14150E04000000FF
:1048400012150D152E2C2A1200000000040A0A363B
:1048500015152916000002020100000000000000EA
:1048600000001008080404040404080810000204EE
:104870000408080808080404020000000004150EDB
:104880000E150400000000000008083E08080000A3
:104890000000000000000000000002020100000013
:1048A0000000003F000000000000000000000000C9
:1048B000000000020000002010100808040402029A
:1048C000010000000E1111111111110E0000000065
:1048D000040604040404040E000000000E11110874
:1048E0000402011F000000000E11100C1010110E28
:1048F00000000000080C0C0A091F081C0000000042
:104900001F01010F1110110E000000000C12010D0B
:104910001311110E000000001E1008080404040406
:10492000000000000E11110E1111110E0000000008
:104930000E111119161009060000000000000400F5
:10494000000000040000000000000004000000045B
:104950000400000010080402020408100000000017
:1049600000003F003F0000000000000002040810AB
:1049700010080402000000000E11110804040004D5
:10498000000000001C22292D2D1D221C000000000B
:1049900004040C0A0A1E1233000000000F12120E4B
:1049A0001212120F000000001E1101010101110E70
:1049B000000000000F1212121212120F000000006D
:1049C0001F120A0E0A02121F000000001F120A0E18
:1049D0000A020207000000001C1201013911120C2A
:1049E000000000003312121E1212123300000000E9
:1049F0001F0404040404041F000000003E0808080B
:104A0000080808080907000037120A060A121237B8
:104A100000000000070202020202223F0000000024
:104A20003B1B1B1B15151535000000003B1216160D
:104A30001A1A1217000000000E1111111111110E97
:104A4000000000000F12120E020202070000000018
:104A50000E1111111117190E180000000F12120E6D
:104A60000A121237000000001E1101060810110F73
:104A7000000000001F1504040404040E00000000E0
:104A8000331212121212120C000000003312120A1A
:104A90000A0C040400000000151515150E0A0A0A78
:104AA000000000001B0A0A04040A0A1B00000000A0
:104AB0001B0A0A0A0404040E000000001F0908046F
:104AC0000402121F00001C0404040404040404046F
:104AD0001C000002020404040808081010000E085C
:104AE00008080808080808080E00040A000000006A
:104AF00000000000000000000000000000000000B6
:104B0000003F020400000000000000000000000060
:104B10000000000C121C123C000000030202020EF6
:104B20001212120E000000000000001C1202120CF3
:104B3000000000181010101C1212123C000000009F
:104B40000000000C121E021C000000182404041EA9
:104B50000404041E000000000000003C120C021CB3
:104B6000221C00030202020E12121237000000047F
:104B7000040000060404040E000000080800000CF5
:104B800008080808080700030202021A0A060A13A6
:104B900000000007040404040404041F00000000D3
:104BA0000000000F15151515000000000000000F93
:104BB00012121237000000000000000C1212120C3A
:104BC000000000000000000F1212120E0207000089
:104BD0000000001C1212121C103800000000001B04
:104BE00006020207000000000000001E020C101E5A
:104BF000000000000004041E0404041C0000000067
:104C00000000001B1212123C000000000000001BFC
:104C10000A0A04040000000000000015150E0A0A2C
:104C2000000000000000001B0A040A1B0000000036
:104C30000000003312120C08040300000000001EE4
:104C40000804041E000018080808080C08080808D2
:104C500018000808080808080808080808080604D2
:104C600004040408040404040600160900000000FB
:104C70000000000000000000000000000000000034
:104C800000000000000000000008080808080808EC
:104C900000001818000000486C24120000000000FA
:104CA0000000000000000000002424247F121212E3
:104CB0007F12121200000000081C2A2A0A0C182871
:104CC000282A2A1C080800000022251515152A5834
:104CD0005454542200000000000C1212120A7625CF
:104CE0002911916E00000006060403000000000078
:104CF000000000000000004020101008080808080C
:104D000008101020400000020408081010101010B5
:104D10001008080402000000000008086B1C1C6B4F
:104D200008080000000000000000080808087F08CC
:104D3000080808000000000000000000000000005B
:104D40000000060604030000000000000000FE0052
:104D50000000000000000000000000000000000053
:104D600000000606000000008040402020101008CF
:104D70000804040202000000001824424242424299
:104D8000424224180000000000080E080808080825
:104D90000808083E00000000003C4242422020106B
:104DA0000804427E00000000003C424220182040DF
:104DB0004042221C0000000000203028242422222F
:104DC0007E20207800000000007E0202021A2640A9
:104DD0004042221C0000000000382402021A264231
:104DE0004242241800000000007E22221010080811
:104DF0000808080800000000003C42424224182431
:104E00004242423C000000000018244242426458E2
:104E10004040241C000000000000000018180000A2
:104E2000000018180000000000000000000800004A
:104E300000000008080400000040201008040204DC
:104E40000810204000000000000000007F0000006B
:104E50007F00000000000000000204081020402035
:104E60001008040200000000003C424246402010AE
:104E70001000181800000000001C225A5555555506
:104E80002D42221C00000000000808181414243CC5
:104E9000224242E700000000001F2222221E22427E
:104EA0004242221F00000000007C42420101010139
:104EB0000142221C00000000001F224242424242E6
:104EC0004242221F00000000003F4212121E121236
:104ED0000242423F00000000003F4212121E121226
:104EE0000202020700000000003C222201010171C1
:104EF0002122221C0000000000E7424242427E4282
:104F0000424242E700000000003E08080808080886
:104F10000808083E00000000007C1010101010105F
:104F200010101010110F0000007722120A0E0A1242
:104F30001222227700000000000702020202020291
:104F40000202427F000000000077363636362A2AF9
:104F50002A2A2A6B0000000000E346464A4A5252C1
:104F60005262624700000000001C22414141414161
:104F70004141221C00000000003F424242423E02EA
:104F80000202020700000000001C22414141414191
:104F90004D53321C60000000003F4242423E12125C
:104FA000222242C700000000007C42420204182076
:104FB0004042423E00000000007F490808080808FF
:104FC0000808081C0000000000E74242424242423A
:104FD0004242423C0000000000E7424222242414E6
:104FE0001418080800000000006B4949494955554C
:104FF000362222220000000000E74224241818185C
:10500000242442E70000000000772222141408083C
:105010000808081C00000000007E21201010080471
:105020000442423F00000078080808080808080801
:1050300008080808780000000202040408080810A4
:10504000102020204040001E1010101010101010D2
:10505000101010101E000038440000000000000076
:105060000000000000000000000000000000000040
:105070000000000000FF0006080000000000000023
:10508000000000000000000000000000003C42782A
:10509000444242FC0000000000030202021A2642C1
:1050A0004242261A000000000000000000384402BE
:1050B0000202443800000000006040404078444252
:1050C000424264D80000000000000000003C427E24
:1050D0000202423C0000000000F08808087E080838
:1050E0000808083E0000000000000000007C2222AA
:1050F0001C023C42423C000000030202023A4642CB
:10510000424242E700000000000C0C00000E0808BC
:105110000808083E00000000003030000038202061
:1051200020202020221E0000000302020272120A28
:105130001612227700000000000E08080808080870
:105140000808083E0000000000000000007F929266
:10515000929292B70000000000000000003B46421F
:10516000424242E70000000000000000003C4242D2
:105170004242423C0000000000000000001B2642AA
:105180004242221E02070000000000000078444254
:105190004242447840E000000000000000774C04E8
:1051A0000404041F0000000000000000007C420214
:1051B0003C40423E0000000000000008083E080895
:1051C00008080830000000000000000000634242B0
:1051D000424262DC000000000000000000E74224C0
:1051E00024140808000000000000000000EB4949FA
:1051F000555522220000000000000000007624180F
:105200001818246E000000000000000000E742248F
:10521000241418080807000000000000007E221077
:105220000808447E000000C02020202020102020FC
:1052300020202020C000101010101010101010108E
:1052400010101010101000060808080808100808B0
:105250000808080806000C32C20000000000000028
:10526000000000000000000000000000000000003E
:10527000000000000000000000000000000000002E
:10528000000000000000000000000000000000001E
:1052900000000000000000000000000000006000AE
:1052A000600060006000600060006000400020005E
:1052B000200020000000000000006000600060008E
:1052C00000000000000000000000600660063003DF
:1052D0009801880044000000000000000000000069
:1052E00000000000000000000000000000000000BE
:1052F000000000000000000000000000000010029C
:10530000100210021002FE07FE0708020801080141
:1053100008010801FE07FE0704010401040104015D
:1053200000000000000000000000000040004000FD
:10533000F00158034C03CC034C0058007000E0000F
:10534000C001C00140034C035C034C034801F00062
:1053500040004000000000000000000000000E01BE
:105360000A01910091009100510051003A00AE03F2
:10537000A0025004500448044804480484028403F2
:1053800000000000000000000000000000003800E5
:105390006C006C006C006C006C002C0098071C0109
:1053A0001A01330133016301E300C308C6093C0756
:1053B000000000000000000000000C001C001000B5
:1053C00010000800040000000000000000000000C1
:1053D00000000000000000000000000000000000CD
:1053E00000000000000000000000000400020001B6
:1053F00080008000400040002000200020002000AD
:1054000020002000200040004000800080000001BB
:105410000002000400000000000002000400080078
:10542000100010002000200040004000400040001C
:105430004000400040002000200010001000080044
:105440000400020000000000000000000000000056
:1054500000004000C0004000460C4E0FD001F0019B
:105460005E0F460C400040004000000000000000BD
:10547000000000000000000000000000000000002C
:105480000000000040004000400040004000FE0FCF
:1054900040004000400040004000000000000000CC
:1054A00000000000000000000000000000000000FC
:1054B00000000000000000000000000000000000EC
:1054C000000000000000000000000C001C001000A4
:1054D00010000800040000000000000000000000B0
:1054E0000000000000000000000000000000FE07B7
:1054F00000000000000000000000000000000000AC
:10550000000000000000000000000000000000009B
:10551000000000000000000000000000000000008B
:10552000000000000000000000001C001C001C0027
:10553000000000000000000000000004000600025F
:105540000003000100018000800040004000600076
:105550002000200010001000080008000C000400CB
:105560000600020000000000000000000000000033
:10557000F00098010C030C03060606060606060654
:1055800006060606060606060C030C039801F00044
:10559000000000000000000000000000000000000B
:1055A00040007C00600060006000600060006000FF
:1055B0006000600060006000600060006000FC034C
:1055C00000000000000000000000000000000000DB
:1055D000F8008401020306030603000300018001B2
:1055E000C000600020001000080204020602FE0352
:1055F00000000000000000000000000000000000AB
:105600007800C6008601860180018001C00070001C
:105610008001000100030003060306038601F80071
:10562000000000000000000000000000000000007A
:1056300080018001C001A001A001900188018801C2
:1056400084018201FE0F8001800180018001E0075A
:10565000000000000000000000000000000000004A
:10566000FC0304000400040004000400F4008C01A6
:105670000403000300030603060382018401F8000B
:10568000000000000000000000000000000000001A
:10569000E00118030C030C0004000600E6011603E9
:1056A0000E0606060606060604060C021803F0009F
:1056B00000000000000000000000000000000000EA
:1056C000F8070C06040204010001000180008000BC
:1056D000400040004000600060006000600060002A
:1056E00000000000000000000000000000000000BA
:1056F000F8010C030606060606060C021C03F00061
:10570000C8010C0306060606060606060C03F00191
:105710000000000000000000000000000000000089
:10572000F0000C010C030602060606060606060734
:105730008C0678060006000300030C018C0178003B
:105740000000000000000000000000000000000059
:1057500000000000000000000000E000E000E000A9
:1057600000000000000000000000E000E000E00099
:105770000000000000000000000000000000000029
:105780000000000000000000000060006000000059
:105790000000000000000000000000006000600049
:1057A0004000200020000000000000000000000475
:1057B00000020001800040002000100008000400EA
:1057C00008001000200040008000000100020004DA
:1057D00000000000000000000000000000000000C9
:1057E00000000000000000000000FE0700000000B4
:1057F0000000FE07000000000000000000000000A4
:105800000000000000000000000000000000040094
:105810000800100020004000800000010002000489
:105820000002000180004000200010000800040079
:105830000000000000000000000000000000000068
:10584000E0031806040C040C0C0C0C0C000780017F
:1058500040004000400000000000E000E000E000E8
:105860000000000000000000000000000000E00058
:1058700018030C02CC0564056605A605B604B6043B
:10588000B604B604B602E4010C040C021803F000DE
:105890000000000000000000000000000000000008
:1058A000600060005000D0009000900088008801E7
:1058B0000801F801040304030402020202060F0FA8
:1058C00000000000000000000000000000000000D8
:1058D000FE008C030C030C030C030C038C01FC0076
:1058E0000C030C020C060C060C060C060C03FE0145
:1058F00000000000000000000000000000000000A8
:10590000E00318030C060C0404040600060006005D
:1059100006000600060006040C040C021803F00042
:105920000000000000000000000000000000000077
:105930007F008C010C030C030C060C060C060C06F5
:105940000C060C060C060C060C030C038C017F00E5
:105950000000000000000000000000000000000047
:10596000FF03060306040604060086008600FE0008
:105970008600860086000600060406040602FF0371
:105980000000000000000000000000000000000017
:10599000FF03060306040604060086008600FE00D8
:1059A00086008600860006000600060006001F002E
:1059B00000000000000000000000000000000000E7
:1059C000F00018010C020C0204020600060006009A
:1059D0000600C60F060306030C030C031803F000B1
:1059E00000000000000000000000000000000000B7
:1059F0000F0F060606060606060606060606FE073C
:105A000006060606060606060606060606060F0F24
:105A10000000000000000000000000000000000086
:105A2000FC036000600060006000600060006000D7
:105A30006000600060006000600060006000FC03C7
:105A40000000000000000000000000000000000056
:105A5000F807C000C000C000C000C000C000C00007
:105A6000C000C000C000C000C000C000C000C00036
:105A7000C60066003C0000000000000000000000BE
:105A8000CF038601C60046002600160036002E0011
:105A90006E004600C60086008601060106038F07D9
:105AA00000000000000000000000000000000000F6
:105AB0001F0006000600060006000600060006009D
:105AC0000600060006000600060406040602FF03A0
:105AD00000000000000000000000000000000000C6
